:100000000C94F8010C9420020C9420020C94200211
:100010000C9420020C9420020C9420020C940A0DE3
:100020000C9420020C9420020C9420020C942002C8
:100030000C9420020C9420020C9420020C942002B8
:100040000C94E4080C9420020C94660D0C94980D0A
:100050000C9420020C9420020C9420020C94200298
:100060000C9400130C94200200000507206100008E
:1000700000000000005F00000007000700147F146C
:100080007F14242A7F2A12231308646236495522DA
:10009000500005030000001C2241000041221C000A
:1000A000082A1C2A0808083E0808005030000008EA
:1000B00008080808006060000020100804023E5193
:1000C00049453E00427F4000426151494621414539
:1000D0004B311814127F1027454545393C4A494990
:1000E0003001710905033649494936064949291E37
:1000F0000036360000005636000000081422411475
:100100001414141441221408000201510906324942
:1001100079413E7E1111117E7F494949363E414168
:1001200041227F4141221C7F494949417F09090100
:10013000013E414151327F0808087F00417F410064
:100140002040413F017F081422417F404040407FD2
:100150000204027F7F0408107F3E4141413E7F0937
:100160000909063E4151215E7F0919294646494940
:10017000493101017F01013F4040403F1F204020A5
:100180001F7F2018207F631408146303047804037E
:10019000615149454300007F41410204081020415C
:1001A000417F000004020102044040404040000141
:1001B00002040020545454787F484444383844445E
:1001C0004420384444487F3854545418087E090168
:1001D00002081454543C7F0804047800447D400015
:1001E0002040443D00007F10284400417F40007CB7
:1001F000041804787C0804047838444444387C1497
:10020000141408081414187C7C0804040848545476
:100210005420043F4440203C4040207C1C2040208F
:100220001C3C4030403C44281028440C5050503C6A
:100230004464544C44000836410000007F00000034
:100240004136080008082A1C08081C2A080800066D
:10025000090906590219802000AED580A81FD300D5
:10026000408D142002A1C8DA02817FD9F1DB40A4BD
:10027000A6AF000000080002010000030407000010
:10028000000000000000010204081020408001026C
:1002900004081020010204081020040404040404CB
:1002A0000404020202020202030303030303000028
:1002B000000023002600290000000000250028007F
:1002C0002B0000000000240027002A00021F1C1F32
:1002D0001E1F1E1F1F1E1F1E1F005EBCE2613FDD92
:1002E00083C29C7E20A3FD1F419DC3217FFCA240B1
:1002F0001E5F01E3BD3E6082DC237D9FC1421CFE88
:10030000A0E1BF5D0380DE3C62BEE0025CDF816392
:100310003D7C22C09E1D43A1FF4618FAA427799B6D
:10032000C584DA3866E5BB5907DB856739BAE40668
:10033000581947A5FB7826C49A653BD987045AB853
:10034000E6A7F91B45C6987A24F8A6441A99C7254A
:100350007B3A6486D85B05E7B98CD2306EEDB35139
:100360000F4E10F2AC2F7193CD114FADF3702ECC18
:1003700092D38D6F31B2EC0E50AFF1134DCE90721F
:100380002C6D33D18F0C52B0EE326C8ED0530DEFFA
:10039000B1F0AE4C1291CF2D73CA947628ABF517FD
:1003A000490856B4EA6937D58B5709EBB536688AE0
:1003B000D495CB2977F4AA4816E9B7550B88D634DB
:1003C0006A2B7597C94A14F6A8742AC896154BA9C2
:1003D000F7B6E80A54D7896B3500030C0F30333C6D
:1003E0003FC0C3CCCFF0F3FCFF008908C80D111249
:1003F00011241FBECFEFD8E0DEBFCDBF12E0A0E0DA
:10040000B1E0EEE8F8E402C005900D92AC3EB10711
:10041000D9F724E0ACEEB2E001C01D92AC3BB207CC
:10042000E1F711E0C8EFD1E004C02197FE010E947E
:10043000D823C53FD107C9F70E940C100C946A1E3F
:100440000C9400000F931F93CF93DF9328EE33E0BB
:1004500040E050E060EA7FE086E00E94890A88EF91
:1004600093E00E94D2118DE293E00E947E1426E078
:1004700040E855E260E070E08BE593E00E94E21016
:1004800010923C038CE380933B0363E572E08EE2C1
:1004900093E00E946A1B88E690E090933A03809371
:1004A00039038EE293E00E944E1B84E190E00E94AB
:1004B000461D90932C0380932B0384E190E00E94CF
:1004C000461D90932A038093290360E084E00E94F4
:1004D000F50964E070E089EF92E00E94261A68EE68
:1004E00073E089EF92E00E943B1A60E085E00E9491
:1004F000F50965E070E081EF92E00E94261A68EE4F
:1005000073E081EF92E00E943B1A88E093E00E9442
:100510009A160CEE12E0C0E0D0E0CE010E942F242B
:10052000F80181938F012196C530D105B1F7DF9194
:10053000CF911F910F910895EF92FF920F931F9308
:10054000CF93DF9300D000D000D0CDB7DEB7498382
:100550005A836B837C838D839E83E0912B03F09180
:100560002C0384E1DF01982F1D929A95E9F7E09121
:100570002903F0912A03DF011D928A95E9F7898109
:1005800090E08053984F64E670E00E946F23F82E4D
:10059000E92E0A811B81CE0101960E9471148A30D6
:1005A00008F043C0E82FF0E0EE0FFF1FE656FD4FC6
:1005B00080819181EF92FF921F920F931F921F9360
:1005C0009F938F9382E191E09F938F9380912A0371
:1005D0008F93809129038F930E946D1E8E811F92AD
:1005E0008F938D811F928F938C811F928F9385E8BB
:1005F00091E09F938F9380912C038F9380912B0395
:100600008F930E946D1E0FB6F894DEBF0FBECDBF54
:1006100026960FB6F894DEBF0FBECDBFDF91CF9107
:100620001F910F91FF90EF90089587E091E0C2CF66
:10063000FC016230710539F13CF46115710571F00E
:1006400061307105C1F008956430710509F43FC04F
:10065000B4F16530710509F442C00895808191813B
:100660000196823028E0920718F4918380830895E0
:1006700080ED97E0FACF82818F5F8D3010F4828316
:10068000089581E0FCCF83818F5F838392819230D4
:1006900071F42081318123703327232B29F48C318D
:1006A00028F181E0838308958D31D8F7089590FD76
:1006B00003C08F31B0F70895803298F70895848190
:1006C0008F5F883110F484830895148208958581A2
:1006D0008F5F8C3310F48583089515820895868189
:1006E0008F5F8C3310F486830895168208958230CC
:1006F000910511F12CF4009749F0019791F00895BC
:100700008330910521F1049769F108958091EC02FD
:100710008F5F8A3018F48093EC0208951092EC02F7
:1007200008958091ED028F5F883118F48093ED0277
:1007300008951092ED0208958091EE028F5F8C3340
:1007400018F48093EE0208951092EE0208958091BD
:10075000EF028F5F8C3318F48093EF0208951092AC
:10076000EF0208958091F00291E089278093F002D2
:1007700008950F931F93CF93DF93CDB7DEB76E9796
:100780000FB6F894DEBF0FBECDBFFC018E010F5F28
:100790001F4F442309F186811F928F9385811F92F9
:1007A0008F9384811F928F9383811F928F93828175
:1007B0001F928F9381818F9380818F9380E291E04C
:1007C0009F938F931F930F930E946D1E0FB6F89403
:1007D000DEBF0FBECDBF0AC0623009F46FC048F55E
:1007E000662309F440C0613009F455C040E060E080
:1007F0008EE293E00E94E31A81E0809337038EE259
:1008000093E00E943B0EB8018EE293E00E944F0EEF
:1008100068EE71E08EE293E00E944F0E6E960FB686
:10082000F894DEBF0FBECDBFDF91CF911F910F9126
:100830000895643009F468C008F453C06530B1F617
:1008400085811F928F9384811F928F9383811F9242
:100850008F9382811F928F9381818F9380818F9359
:100860008CEC91E011C086811F928F9385811F923D
:100870008F9384811F928F9383811F928F938281A4
:100880001F928F938EE391E09F938F931F930F930B
:100890000E946D1E9BCF86811F928F9385811F9230
:1008A0008F9384811F928F9383811F928F93818175
:1008B0008F9380818F938CE591E0E6CF86811F92A4
:1008C0008F9385811F928F9384811F928F93828152
:1008D0001F928F9381818F9380818F9388E791E01E
:1008E000D3CF86811F928F9385811F928F938381AF
:1008F0001F928F9382811F928F9381818F9380812A
:100900008F9384E991E0C0CF86811F928F93848179
:100910001F928F9383811F928F9382811F928F9357
:1009200081818F9380818F9380EB91E0ADCF0F9386
:100930001F93CF93DF93CDB7DEB762970FB6F894CE
:10094000DEBF0FBECDBF8E010F5F1F4F92E1F801DA
:1009500011929A95E9F76623A9F18091F00281112D
:100960002BC02EE031E06091EF025091EE024091F9
:10097000ED02E091EC02EA3010F5F0E0EE0FFF1F1F
:10098000E656FD4F808191813F932F931F926F9385
:100990001F925F931F924F939F938F938CEF91E0E1
:1009A0009F938F931F930F930E946D1E0FB6F89421
:1009B000DEBF0FBECDBF10C02AE031E0D4CF87E04C
:1009C00091E0E2CF823009F48EC028F5882309F443
:1009D00044C0813009F461C040E060E08EE293E001
:1009E0000E94E31A81E08093370341E064E18EE2E4
:1009F00093E00E94E31AB8018EE293E00E944F0E4A
:100A000062960FB6F894DEBF0FBECDBFDF91CF91D7
:100A10001F910F910895833009F48BC08430E1F663
:100A20004091EF023091EE022091ED02E091EC0254
:100A3000EA3008F0A4C0F0E0EE0FFF1FE656FD4FCD
:100A4000808191811F924F931F923F931F922F930A
:100A50009F938F938FE592E016C08091F0028111F1
:100A600019C08EE091E09F938F938091EF021F92C7
:100A70008F938091EE021F928F938091ED021F92CF
:100A80008F9381E192E09F938F931F930F930E9426
:100A90006D1E8CCF8AE091E0E6CF8091F00281114B
:100AA0001CC02EE031E05091EF024091EE02E09147
:100AB000EC02EA30A8F4F0E0EE0FFF1FE656FD4F1F
:100AC000808191813F932F931F925F931F924F9349
:100AD0009F938F9386E292E0D6CF2AE031E0E3CF76
:100AE00087E091E0EFCF8091F00281111CC02EE0F1
:100AF00031E05091EF024091ED02E091EC02EA30DA
:100B0000A8F4F0E0EE0FFF1FE656FD4F80819181C3
:100B10003F932F931F925F931F924F939F938F93B7
:100B200089E392E0B0CF2AE031E0E3CF87E091E0C3
:100B3000EFCF8091F00281111CC02EE031E0509186
:100B4000EE024091ED02E091EC02EA30A8F4F0E010
:100B5000EE0FFF1FE656FD4F808191813F932F934B
:100B60001F925F931F924F939F938F938CE492E019
:100B70008ACF2AE031E0E3CF87E091E0EFCF87E052
:100B800091E060CF8F929F92AF92BF92CF92EF92FF
:100B9000FF920F931F93CF93DF93CDB7DEB7639789
:100BA0000FB6F894DEBF0FBECDBFF82E8DE293E0F6
:100BB0000E94F714832F30E02053384F3A83298363
:100BC0008B834C835D836E837F830E942E094B0150
:100BD0005C016AE070E089EF92E00E943B1A6AE0F3
:100BE00070E081EF92E00E943B1A8EE293E00E9457
:100BF0004E1B01E010E0EE24E39481EF92E00E94AE
:100C00003F1A89EF92E00E943F1A89EF92E00E941A
:100C1000901A8823E9F11F5F1630B0F1F11068C017
:100C200069817A81CF80EE800D812C814B81CE014C
:100C300008960E945D14BE01685F7F4F8DE293E0CD
:100C40000E9480148EE293E00E944E1B68EE73E0D7
:100C500089EF92E00E943B1A68EE73E081EF92E028
:100C60000E943B1A63960FB6F894DEBF0FBECDBF4D
:100C7000DF91CF911F910F91FF90EF90CF90BF9098
:100C8000AF909F908F900895153011F4F11030C0FF
:100C900081EF92E00E94901A882349F0812F90E022
:100CA000F1101EC0BC01CE0101960E9418030E94E3
:100CB0002E09681979098A099B096D3271408105ED
:100CC000910528F00E250E942E094B015C01F110C0
:100CD0000AC0402F612FCE0101960E94B9038DCF2B
:100CE0000E947703E4CF602F812F0E94970485CF65
:100CF0008CEEA82E82E0B82E00E010E0F5016191A4
:100D00005F01C8010E9437240F5F1F4F0530110596
:100D1000A9F798CFCF92DF92EF92FF92CF93DF9314
:100D20000E942E096B017C016AE070E089EF92E07D
:100D30000E943B1A6AE070E081EF92E00E943B1A49
:100D400020E030E0A90160EA7FE086E00E94890AA5
:100D50008EE293E00E944E1BC0E0D2E0CF5FC9312B
:100D6000A9F586E00E94F50CD093370341E06EE1CF
:100D70008EE293E00E94E31A65E772E08EE293E070
:100D80000E944F0E0E942E096C197D098E099F0941
:100D9000613C77428940910528F186E00E94F50C7C
:100DA0008EE293E00E944E1B68EE73E089EF92E0C2
:100DB0000E943B1A68EE73E081EF92E0DF91CF91E1
:100DC000FF90EF90DF90CF900C943B1AC23361F606
:100DD00020E030E0A90160EA7FE086E00E94890A15
:100DE000C0E0C2CF81EF92E00E943F1A89EF92E00B
:100DF0000E943F1A89EF92E00E94901A8111CDCF94
:100E000081EF92E00E94901A882309F4A7CFC5CF02
:100E10000F931F93CF93DF9300D000D000D0CDB7B6
:100E2000DEB749835A836B837C838D839E83809155
:100E3000F002882309F454C01091EC021830C1F17B
:100E4000193009F1CE010196173009F045C00E9412
:100E50007114882371F0CE0101960E94711490E004
:100E600006971CF5CE0101960E947114082F10E020
:100E700002C001E010E0CE0101960E94711490E0E2
:100E80000817190769F59091ED028C81981328C015
:100E90009091EE028D81981323C09091EF028E8184
:100EA00098131EC00E948A061BC005E010E0E3CF25
:100EB000CE0101960E94711490E0069754F0CE0185
:100EC00001960E94711490E0089764F207E010E028
:100ED000D2CF06E010E0CFCF0E947114181799F21C
:100EE00026960FB6F894DEBF0FBECDBFDF91CF912F
:100EF0001F910F9108950F931F93CF93DF9300D00D
:100F000000D000D0CDB7DEB78DE293E00E94F71499
:100F1000F42FE52FCB0129833A83FB83EC836D8388
:100F20009E83A9016F2F7E2F0E949C0288E093E090
:100F30000E94811780910103882309F474C08EE216
:100F400093E00E944E1B81EF92E00E943F1A88239B
:100F500099F081EF92E00E94901A882369F00E9434
:100F60002E09609304037093050380930603909306
:100F7000070381E08093020389EF92E00E943F1A09
:100F8000882399F089EF92E00E94901A882369F0F3
:100F90000E942E0960930403709305038093060357
:100FA0009093070381E08093030380910103909164
:100FB0000303811198C080910203913009F476C037
:100FC0008130F1F40E942E09009104031091050371
:100FD0002091060330910703601B710B820B930B6A
:100FE000693C71058105910558F0809102038130BB
:100FF00009F072C00E94C20510920303109202030E
:1010000049815A816B817C818D819E810E94080774
:1010100026960FB6F894DEBF0FBECDBFDF91CF91FD
:101020001F910F91089540E060E08EE293E00E94EE
:10103000E31A81E0809337036091290370912A03BA
:101040008EE293E00E94320E63E772E08EE293E05C
:101050000E94320E60E088E093E00E941318AB011A
:10106000BC0122E030E08EE293E00E94091060E8CB
:101070008EE293E00E94340E63E48EE293E00E94DD
:10108000610E8EE293E00E943B0E82E08093370374
:1010900060E28EE293E00E94340E60912B03709127
:1010A0002C038EE293E00E944F0E4DCF813009F069
:1010B00089CF80930103109203031092020364E12D
:1010C00070E089EF92E00E943B1A64E170E081EFEA
:1010D00092E00E943B1A94CF80910303813009F083
:1010E0008BCF80E087CF913029F08091020381304F
:1010F00009F086CF109201031092030310920203AD
:1011000068EE73E089EF92E00E943B1A68EE73E0AC
:10111000DECFEEE2F3E01382128281E08187148653
:10112000138682EB92E09183808362E08BE193E00F
:101130000E945C196BE173E088E093E00E94A515C2
:1011400089EF92E00E941A1A81EF92E00C941A1A29
:101150000F931F93CF93DF93EC01062F142F8E85EF
:10116000282F30E02131310524F4882339F0411152
:1011700005C088EF93E00E940E121E868E858111B5
:101180000CC06D8588EF93E00E94EF111123A1F050
:1011900060E488EF93E00E94A111602F88EF93E054
:1011A0000E94A111123051F48E858F5F8E87DF91DE
:1011B000CF911F910F91089560E0EBCF88EF93E0FE
:1011C0000E940E121E86F3CF1F920F920FB60F923F
:1011D00011242F933F938F939F93AF93BF9380914D
:1011E0003E0390913F03A0914003B09141033091A1
:1011F0003D0323E0230F2D3758F50196A11DB11DA6
:1012000020933D0380933E0390933F03A0934003BC
:10121000B09341038091420390914303A091440312
:10122000B09145030196A11DB11D80934203909397
:101230004303A0934403B0934503BF91AF919F91A3
:101240008F913F912F910F900FBE0F901F90189587
:1012500026E8230F0296A11DB11DD2CF2FB7F89417
:1012600060913E0370913F03809140039091410350
:101270002FBF08953FB7F8948091420390914303A4
:10128000A0914403B091450326B5A89B05C02F3F0C
:1012900019F00196A11DB11D3FBFBA2FA92F982F9C
:1012A0008827BC01CD01620F711D811D911D42E097
:1012B000660F771F881F991F4A95D1F70895CF921F
:1012C000DF92EF92FF92CF93DF936B017C010E943C
:1012D0003A09EB01C114D104E104F10439F4DF91BE
:1012E000CF91FF90EF90DF90CF9008950E94880AF1
:1012F0000E943A096C1B7D0B683E734058F381E0F5
:10130000C81AD108E108F108C851DC4FE3CF0197B2
:1013100039F0880F991F880F991F02970197F1F7ED
:101320000895789484B5826084BD84B5816084BD5D
:1013300085B5826085BD85B5816085BDEEE6F0E04E
:10134000808181608083E1E8F0E0108280818260AA
:101350008083808181608083E0E8F0E0808181602B
:101360008083E1EBF0E0808184608083E0EBF0E05B
:10137000808181608083EAE7F0E0808184608083FF
:1013800080818260808380818160808380818068A9
:1013900080831092C1000895833081F028F4813059
:1013A00099F08230A9F008958730A9F08830C9F00B
:1013B0008430B1F4809180008F7D03C080918000E3
:1013C0008F7780938000089584B58F7784BD0895CA
:1013D00084B58F7DFBCF8091B0008F778093B00074
:1013E00008958091B0008F7DF9CFCF93DF9390E087
:1013F000FC01EA57FD4F249186569D4FFC018491D4
:101400008823C9F090E0880F991FFC01EE53FD4F2F
:10141000A591B491FC01E854FD4FC591D49161119F
:101420000DC09FB7F8948C91209582238C9388816E
:10143000282328839FBFDF91CF910895623051F414
:101440009FB7F8943C91822F809583238C93E881F9
:101450002E2BEFCF8FB7F894EC912E2B2C938FBFC0
:10146000EACF1F93CF93DF93162F282F30E0F90197
:10147000EE58FD4F8491F901EA57FD4FD491F901DF
:10148000E656FD4FC491CC23A1F081110E94CC09F6
:10149000EC2FF0E0EE0FFF1FE854FD4FA591B49143
:1014A0008FB7F894EC91111108C0D095DE23DC932E
:1014B0008FBFDF91CF911F910895DE2BF8CFCF938F
:1014C000DF93282F30E0F901EE58FD4F8491F901A8
:1014D000EA57FD4FD491F901E656FD4FC491CC2354
:1014E000A1F081110E94CC09EC2FF0E0EE0FFF1F5C
:1014F000E255FD4FA591B491EC91ED2381E090E090
:1015000009F480E0DF91CF91089580E090E0FACF78
:1015100008953F924F925F926F927F928F929F9227
:10152000AF92BF92CF92DF92EF92FF920F931F93F1
:10153000CF93DF9300D000D0CDB7DEB78B01290168
:101540003A0190910601891709F43CC09F3F09F0C8
:101550003EC080930601ECECF2E034909FEF391628
:1015600009F435C0E1E03E1609F4C5C03E1608F4A2
:1015700044C0F2E03F1229C01092B0001092B100B6
:101580009091B00092609093B0009091B100916002
:101590009093B100282F30E0F901E656FD4FE49119
:1015A000F0E0EE0FFF1FE854FD4F4591549150932A
:1015B000480340934703F901EA57FD4FE491E09354
:1015C00046033BC0ECECF2E0349037FE36C00F909F
:1015D0000F900F900F90DF91CF911F910F91FF907F
:1015E000EF90DF90CF90BF90AF909F908F907F90C3
:1015F0006F905F904F903F90089514BC15BC94B5C8
:10160000926094BD95B5916095BD282F30E0F901A9
:10161000E656FD4FE491F0E0EE0FFF1FE854FD4F5A
:10162000459154915093560340935503F901EA575D
:10163000FD4FE491E0935403312C61E00E94F509E1
:101640004801A12CB12C832D8D7F09F02AC160E0C7
:1016500072E18AE790E0A50194010E94B9232983F1
:101660003A834B835C8369017A0181E0C81AD1080F
:10167000E108F1089FEFC916D104E104F10409F073
:101680000CF4D6C060E472E48FE090E0A501940110
:101690000E94B92369017A01E1E0CE1AD108E1087C
:1016A000F108F2E03F124DC08FEFC816D104E104FB
:1016B000F10409F00CF477C160E970ED83E090E08B
:1016C000A50194010E94B92369017A0191E0C91A28
:1016D000D108E108F108EFEFCE16D104E104F104DE
:1016E00011F00CF03DC183E09091B100987F892BFF
:1016F0008093B100A4C0109280001092810090915C
:101700008100986090938100909181009160909306
:101710008100282F30E0F901E656FD4FE491F0E01A
:10172000EE0FFF1FE854FD4F4591549150934F0326
:1017300040934E03F901EA57FD4FE491E0934D03C6
:101740007CCFFFEFCF16D104E104F10409F00CF4D3
:10175000A2C068E478EE81E090E0A50194010E94C7
:10176000B92369017A0181E0C81AD108E108F108BA
:10177000332009F40EC184E09FEFC916D104E104BF
:10178000F10409F008F455C062E17AE780E090E0E6
:10179000A50194010E94B92369017A01E1E0CE1A02
:1017A000D108E108F108FFEFCF16D104E104F104FC
:1017B00009F050F586E098CF64E274EF80E090E0A5
:1017C000A50194010E94B92369017A0191E0C91A27
:1017D000D108E108F10885E0CFCF62E17AE780E047
:1017E00090E0A50194010E94B92369017A01E1E02A
:1017F000CE1AD108E108F108FFEFCF16D104E104B9
:10180000F10409F008F449C0C980DA80EB80FC805B
:101810009AE0F594E794D794C7949A95D1F781E02C
:10182000C81AD108E108F1083320C9F187E05CCF7C
:1018300081E0311059CF95B5987F892B85BD411432
:1018400051046104710409F477C0D801AA0FBB1FC9
:10185000A30192010E94ED2328EE33E040E050E026
:101860000E94972391E0391609F443C0E2E03E1646
:1018700009F466C03110ABCEC7BC20935703309338
:1018800058034093590350935A0380916E0082602D
:1018900080936E009CCE82E0CCCF84E0CCCF85E0FC
:1018A000CACF60E072E18AE790E0A50194010E944E
:1018B000B92369017A0191E0C91AD108E108F10858
:1018C000C114D104E1E0EE06F1042CF591E081E0D1
:1018D0003812B5CF80918100887F892B8093810059
:1018E000411451046104710409F0AFCF2FEF3FEFB1
:1018F000A901D0928900C0928800209350033093B0
:101900005103409352035093530380916F008260C0
:1019100080936F005CCE68E478EE81E090E0A501F2
:1019200094010E94B92369017A01F1E0CF1AD1082C
:10193000E108F10893E0CBCF2FEF3FEFA90192CF61
:10194000C092B3002093490330934A0340934B0362
:1019500050934C038091700082608093700037CE6A
:1019600068E478EE81E090E0A50194010E94B9233B
:1019700069017A01F1E0CF1AD108E108F1088FEF8F
:10198000C816D104E104F10411F00CF015CF84E085
:10199000ABCE9FEFC916D104E104F10411F00CF0B5
:1019A0001CCF83E048CF82E09FCE813039F018F021
:1019B000823051F0089510926E00089580916F006A
:1019C0008D7F80936F000895809170008D7F80934C
:1019D000700081E08093B0008091B100887F8460C6
:1019E0008093B1001092B3000895CF93C82F8091D7
:1019F0000601C8130DC0ECECF2E084919FEF9093C8
:101A000006010E94D50C60E08C2FCF910C94310A16
:101A10008FEFF7CF1F920F920FB60F9211242F93D3
:101A20003F934F935F936F937F938F939F93AF9366
:101A3000BF93EF93FF938091490390914A03A09144
:101A40004B03B0914C03892B8A2B8B2BD1F18091C6
:101A50004603E0914703F0914803908189278083F2
:101A60008091490390914A03A0914B03B0914C039C
:101A7000181619061A061B069CF4809149039091CA
:101A80004A03A0914B03B0914C030197A109B109FE
:101A90008093490390934A03A0934B03B0934C0364
:101AA000FF91EF91BF91AF919F918F917F916F9136
:101AB0005F914F913F912F910F900FBE0F901F900C
:101AC0001895809106010E94F50CEACF1F920F92A3
:101AD0000FB60F9211242F938F939F93EF93FF9341
:101AE000E0916B03F0916C038081E0917103F091C0
:101AF000720382FD1BC09081809174038F5F8F738E
:101B000020917503821741F0E0917403F0E0E55AEB
:101B1000FC4F958F80937403FF91EF919F918F916C
:101B20002F910F900FBE0F901F9018958081F4CFCA
:101B30001F920F920FB60F9211242F933F934F9342
:101B40005F936F937F938F939F93AF93BF93EF9325
:101B5000FF938BE593E00E945710FF91EF91BF91A7
:101B6000AF919F918F917F916F915F914F913F9135
:101B70002F910F900FBE0F901F9018958BE593E05B
:101B80000E941B1021E0892B09F420E0822F089588
:101B9000EBE5F3E01382128288EE93E0A0E0B0E080
:101BA00084839583A683B7838AEC92E091838083B4
:101BB00085EC90E09587848784EC90E09787868712
:101BC00080EC90E0918B808B81EC90E0938B828B0A
:101BD00082EC90E0958B848B86EC90E0978B868BE3
:101BE000118E128E138E148E0895CF92DF92EF9283
:101BF000FF920F931F93CF93DF936C01EB017B0157
:101C0000E40EF51E00E010E0CE15DF0561F06991ED
:101C1000D601ED91FC910190F081E02DC60109956E
:101C2000080F191FF1CFC801DF91CF911F910F91BC
:101C3000FF90EF90DF90CF9008956115710579F0D6
:101C4000FB0101900020E9F73197AF01461B570BCC
:101C5000DC01ED91FC910280F381E02D099480E09C
:101C600090E008950C941D0EDC01ED91FC91019023
:101C7000F081E02D09940F931F93CF93DF93EC0134
:101C80006DE00E94340E8C016AE0CE010E94340E99
:101C9000800F911FDF91CF911F910F9108950F93A6
:101CA0001F93CF93DF93EC010E941D0E8C01CE0198
:101CB0000E943B0E800F911FDF91CF911F910F91DA
:101CC00008950F931F93CF93DF93EC010E94340E7E
:101CD0008C01CE010E943B0E800F911FDF91CF91AE
:101CE0001F910F9108958F929F92AF92BF92CF92C2
:101CF000DF92EF92FF920F931F93CF93DF93CDB7B5
:101D0000DEB7A1970FB6F894DEBF0FBECDBF6C0152
:101D1000142FE52FCB01022F19A230E0223031051C
:101D20000CF40AE07E0121E2E20EF11C802E912CDF
:101D3000A12CB12C612F7E2FA50194010E94972325
:101D4000029F1019112481E0E81AF1081A300CF5ED
:101D5000105DF7011083122FE32FCA01232B242BD0
:101D6000252B41F7B701C6010E941D0EA1960FB6A3
:101D7000F894DEBF0FBECDBFDF91CF911F910F91C1
:101D8000FF90EF90DF90CF90BF90AF909F908F909B
:101D90000895195CDECFCF92DF92EF92FF920F93FE
:101DA0001F93CF93DF93EC016A017B01211531056D
:101DB00079F4E881F9810190F081E02D642FDF91C1
:101DC000CF911F910F91FF90EF90DF90CF900994EA
:101DD0002A303105E9F477FF1AC06DE20E94340E13
:101DE0008C0144275527BA014C195D096E097F09FA
:101DF0002AE0CE010E94730E800F911FDF91CF91D8
:101E00001F910F91FF90EF90DF90CF9008952AE0FF
:101E1000B701A601CE01DF91CF911F910F91FF90E5
:101E2000EF90DF90CF900C94730E9A01AB01770F77
:101E3000660B770B0C94CB0E5F926F927F928F9212
:101E40009F92AF92BF92CF92DF92EF92FF920F9349
:101E50001F93CF93DF93EC016A017B01522E9A010D
:101E6000AB01C701B6010E94CE20882309F493C0BC
:101E700062EC72E0ABC02FEF3FEF4FE75FE4C701CA
:101E8000B6010E945C2018161CF46CEB72E09EC038
:101E90002FEF3FEF4FE75FECC701B6010E94FD1E39
:101EA00087FDF3CF20E030E0A901C701B6010E9411
:101EB000FD1E87FF1DC06DE2CE010E94340E8C0115
:101EC000F7FAF094F7F8F094B12C60E070E080E05D
:101ED0009FE3652C712C2B2D30E0261537055CF423
:101EE00020E030E040E251E40E94021FB394F3CFBF
:101EF00000E010E0E9CFA70196010E94911E6B015E
:101F00007C010E947B1F4B015C012AE0AB01BC01FC
:101F1000CE010E94730E080F191F672809F468C0CC
:101F2000C501B4010E94AA1F9B01AC01C701B60103
:101F30000E94901E6B017C0160EC72E0CE010E9459
:101F40001D0E080F191F552009F452C020E030E083
:101F500040E251E4C701B6010E9461204B015C01DF
:101F60000E94741F6B017C014AE050E0CE010E9488
:101F7000150F080F191FB601DD0C880B990B0E9475
:101F8000AC1F9B01AC01C501B4010E94901E6B0106
:101F90007C015A94D8CF46015701E894B7F82FEF47
:101FA0003FEF4FE75FE7C501B4010E94CE208111EA
:101FB00062CF2FEF3FEF4FE75FE7C501B4010E940B
:101FC000FD1E18160CF057CF68EB72E0CE01DF91C2
:101FD000CF911F910F91FF90EF90DF90CF90BF9026
:101FE000AF909F908F907F906F905F900C941D0E9C
:101FF000C801DF91CF911F910F91FF90EF90DF907B
:10200000CF90BF90AF909F908F907F906F905F9098
:1020100008950C941C0F08950E9491090E940B10C2
:102020000E942202C9E4D0E10E947B072097E1F3DD
:102030000E944910F9CFFC01918D228D892F90E0EB
:10204000805C9F4F821B91098F7399270895FC0133
:10205000918D828D981731F0828DE80FF11D858D5D
:1020600090E008958FEF9FEF0895FC01918D828D90
:10207000981761F0828DDF01A80FB11D5D968C91DC
:10208000928D9F5F9F73928F90E008958FEF9FEFE7
:1020900008958EEB9DE0892B49F080E090E0892B3C
:1020A00029F00E94BE0D81110C9400000895FC01DE
:1020B000848DDF01A80FB11DA35ABF4F2C91848DD1
:1020C00090E001968F739927848FA689B7892C9306
:1020D000A089B1898C9180648C93938D848D9813A1
:1020E00006C00288F389E02D80818F7D808308956A
:1020F000CF93DF93EC01888D882351F0EA89FB8927
:10210000808185FD08C0A889B9898C9186FF03C0AC
:10211000DF91CF9108950FB607FCF2CF808185FF44
:10212000EFCFA889B9898C9185FFEACFCE010E94B3
:102130005710E4CFEF92FF920F931F93CF93DF934B
:10214000EC01F62E9B8D8C8D981305C0E889F989DA
:10215000808185FD2EC00B8D10E00F5F1F4F0F7328
:102160001127E02E8C8DE8120CC00FB607FCFACFB9
:10217000E889F989808185FFF5CFCE010E9457104B
:10218000F1CF8B8DFE01E80FF11DE35AFF4FF08276
:102190000B8FEA89FB8980818062808381E0888F50
:1021A00081E090E0DF91CF911F910F91FF90EF9030
:1021B0000895EE89FF896083E889F98980818064C8
:1021C0008083EECFCF92DF92EF92FF921F93CF9357
:1021D000DF93EC016A017B01122FE889F98982E023
:1021E00080834115514E61057105A1F060E079E0F1
:1021F0008DE390E0A70196010E94972321503109B9
:10220000410951095695479537952795211580E144
:10221000380798F0E889F989108260E874E88EE15F
:1022200090E0A70196010E949723215031094109AE
:1022300051095695479537952795EC85FD8530834F
:10224000EE85FF852083188EEC89FD891083EA894D
:10225000FB89808180618083EA89FB898081886035
:102260008083EA89FB89808180688083EA89FB8991
:1022700080818F7D8083DF91CF911F91FF90EF90C0
:10228000DF90CF9008958091280490E02091290458
:10229000821B9109089520912904822F90E040919A
:1022A000280450E0841795074CF4865D9B4FFC0191
:1022B000808190E02F5F2093290408958FEF9FEF96
:1022C00008958091290490E02091280430E082173D
:1022D000930734F4865D9B4FFC01808190E0089564
:1022E0008FEF9FEF08950895CF92DF92EF92FF92C4
:1022F0000F931F93CF93DF937C01CB018A01209131
:102300000404222389F0EB016B01C40ED51ECC1509
:10231000DD0569F06991D701ED91FC910190F081A3
:10232000E02DC7010995F3CF642F0E94D712C80191
:10233000DF91CF911F910F91FF90EF90DF90CF90A1
:102340000895CF93DF931F92CDB7DEB769832091B5
:102350000404222309F12091050430E020323105E4
:102360005CF021E030E0FC013383228380E090E0E8
:102370000F90DF91CF91089580910604E82FF0E04F
:10238000E95FFB4F998190838F5F80930604809370
:10239000050481E090E0ECCF61E0CE0101960E945F
:1023A000D712F7CF10922904109228041092060435
:1023B000109205040C942212862F642F70E0613273
:1023C00071050CF040E26AE274E00E944012109243
:1023D000290480932804089521E00C94DC1181E005
:1023E000809304046093270410920604109205045D
:1023F00008950C94EF110F93062F21E040910504EE
:1024000067E074E0809127040E9484121092060411
:1024100010920504109204040F91089561E00C9449
:10242000FB11E8EFF3E01382128288EE93E0A0E064
:10243000B0E084839583A683B7838AED92E091838D
:10244000808308951092B70481E08093B5041092C0
:10245000B40461E082E10E94310A61E083E10E94FC
:10246000310AE9EBF0E080818E7F808380818D7F6F
:10247000808388E48093B80085E48093BC0008954D
:10248000413208F03FC09091B7049111FCCF91E028
:102490009093B7042093B5042FEF20934A04109231
:1024A0008F04240F20938E049093B6049091B60469
:1024B000880F892B8093B6048091B4048130E9F4AD
:1024C0001092B4048091B6048093BB0085EC809395
:1024D000BC008091B7048130E1F380918F048417B0
:1024E00010F440918F04A0E9B4E0962FFB018E2FE9
:1024F000891B841720F0842F089585EEE8CF8D91F5
:102500008193F5CF40E0F7CF0F93413208F047C0F9
:102510009091B7049111FCCF92E09093B70400938F
:10252000B5049FEF90934A0410928F0440938E0459
:10253000362FA0E9B4E0FB019E2F931B941750F1B6
:102540001092B6049091B604880F892B8093B6043C
:102550008091B404813009F51092B4048091B604DE
:102560008093BB0085EC8093BC00222321F08091F6
:10257000B7048230D1F380914A048F3F91F080916B
:102580004A04803281F080914A04803371F084E003
:102590000F91089591919D93CFCF85EEE4CF81E087
:1025A000F7CF80E0F5CF82E0F3CF83E0F1CF613267
:1025B00098F42091B704243089F460936C04282F98
:1025C000AEE6B4E0FC018E2F821B861710F080E08F
:1025D000089581918D93F7CF81E0089582E0089569
:1025E00085ED8093BC008091BC0084FDFCCF1092EF
:1025F000B704089585EC8093BC001092B704089549
:102600001F920F920FB60F9211242F933F934F9367
:102610005F936F937F938F939F93AF93BF93EF934A
:10262000FF938091B900887F803609F44CC008F090
:102630003FC0883209F4A8C018F5803109F49CC065
:10264000B8F4882309F4F9C0883009F495C0FF91E3
:10265000EF91BF91AF919F918F917F916F915F911A
:102660004F913F912F910F900FBE0F901F90189593
:10267000883109F489C0803251F780934A0415C02B
:10268000803409F49EC048F48033B9F38833F9F6F6
:1026900080934A040E94FA12DACF803509F485C08B
:1026A000883509F496C0883491F60E94F012CFCF95
:1026B000883909F48CC038F5883729F050F4883609
:1026C00011F0803721F683E08093B70410924B0419
:1026D00057C0883809F47BC0803919F0803809F078
:1026E000B6CF80914B04803208F071C0E0914B046A
:1026F00081E08E0F80934B048091BB00F0E0E45B9F
:10270000FB4F80833DC0803B39F0E0F4803A09F410
:1027100079C0883A09F09BCF84E08093B704109287
:102720006D0410926C04E091B204F091B304099529
:1027300080916C0481110FC081E080936C04109231
:102740006E0409C0803C09F476C0883C09F473C06B
:10275000883B09F07CCFE0916D0481E08E0F80937F
:102760006D04F0E0E259FB4F80818093BB009091B3
:102770006D0480916C0429C08091B6048093BB00E5
:1027800085EC8093BC0063CF90918F0480918E0480
:10279000981758F5E0918F0481E08E0F80938F0495
:1027A000F0E0E057FB4F8081E9CFE0918F0481E0BA
:1027B0008E0F80938F048091BB00F0E0E057FB4FB9
:1027C000808390918F0480918E049817C8F285E8D9
:1027D000D8CFE0918F0481E08E0F80938F04809199
:1027E000BB00F0E0E057FB4F80838091B50481117E
:1027F0005CCF81E08093B40484EA8093BC001092A3
:10280000B70425CF80914B04803230F4E0914B0423
:10281000F0E0E45BFB4F10820E94F01260914B04E9
:1028200070E0E091B004F091B1048CE494E009957B
:1028300010924B042FCF85ECE0CF10924A0435CF95
:10284000803D27E0920710F0805D974050E021E046
:1028500070E0E22FF0E0E617F7073CF4E453FD4F99
:10286000E4914E0F511D2F5FF4CF633071053CF0A2
:102870009C0123703327232B11F44F5F5F4F9C0182
:102880002D5F3F4F3695279536952795EDE6F1E07C
:102890008E9FB0018F9F700D9E9F700D1124CB01F4
:1028A0000197820F931F840F951F0895DC01ED910E
:1028B000FC910190F081E02D0994CF92EF920F935B
:1028C000FC01603D87E0780710F0605D7740608331
:1028D000418322830383E482C5820F91EF90CF90DE
:1028E0000895FC0180814281618190E00E94201462
:1028F000069667E070E00E946F23089581E00895D6
:102900001F93CF93DF93EB0168E670E088EF93E0CD
:102910000E94F91160E070E088EF93E00E94561485
:102920002D811AE0822F612F0E946323682F660F8A
:10293000680F660F620F88EF93E00E94A1112C814F
:10294000822F612F0E946323682F660F680F660F26
:10295000620F88EF93E00E94A1112B81822F612FDB
:102960000E946323682F660F680F660F620F88EF5F
:1029700093E00E94A11160E088EF93E00E94A11112
:102980002A81822F612F0E946323682F660F680FB0
:10299000660F620F88EF93E00E94A1112981822FB8
:1029A000612F0E946323682F660F680F660F620F06
:1029B00088EF93E00E94A1112881822F612F0E944D
:1029C0006323682F660F680F660F620F88EF93E02E
:1029D0000E94A11160E070E088EF93E00E9456141D
:1029E00088EF93E0DF91CF911F910C940E12DF924C
:1029F000EF92FF920F931F93CF93DF9300D000D0FD
:102A000000D0CDB7DEB768E670E088EF93E00E94B3
:102A1000F91160E070E088EF93E00E94561488EFAF
:102A200093E00E940E1247E050E068E670E088EF05
:102A300093E00E94EC1188EF93E00E944B118F7796
:102A4000282F30E094E0359527959A95E1F7922F5D
:102A5000990F990F122F191B110F180F88EF93E080
:102A60000E944B119C0144E0359527954A95E1F76A
:102A70002F703327922F990F990F022F091B000FE8
:102A8000080F88EF93E00E944B119C0154E03595AC
:102A900027955A95E1F72F703327922F990F990FA9
:102AA000F22EF91AFF0CF80E88EF93E00E944B11FA
:102AB00088EF93E00E944B119C0164E035952795C7
:102AC0006A95E1F72F703327922F990F990FE22E15
:102AD000E91AEE0CE80E88EF93E00E944B119C017E
:102AE00074E0359527957A95E1F72F703327922F6B
:102AF000990F990FD22ED91ADD0CD80E88EF93E0DA
:102B00000E944B11AC01E4E055954795EA95E1F739
:102B10004F705527942F990F990F242F291B220F9F
:102B2000280F3D2DA701B80180E090E026960FB652
:102B3000F894DEBF0FBECDBFDF91CF911F910F91F3
:102B4000FF90EF90DF9008950895FC0184EA95E1ED
:102B5000928B818B768365831482108289E08183D6
:102B600081E0828383830895CF93DF93EB0167E055
:102B7000CE010E940D1A91E02F81281390E0892F39
:102B8000DF91CF910895CF92DF92EF92FF920F9352
:102B90001F93CF93DF938C017B01D42FFC018581A0
:102BA00096810E945019C0E0CD2ED12C8C2F90E040
:102BB000C816D90654F480E0DF91CF911F910F9190
:102BC000FF90EF90DF90CF90089541E0B701F801BA
:102BD000858196810E947F19882369F3CD1306C0F1
:102BE000B701C8010E94B4158111E6CFCF5FDECFD7
:102BF000EF92FF920F931F93CF93DF93EC018B0122
:102C00007A018D819E810E943E188823F9F0B801D7
:102C10008D819E810E942F1940E06EEB8D819E81F7
:102C20000E94DF188701F12C8D819E810E9413196B
:102C3000F80181938F01F394F9E0FF12F5CF8D81B4
:102C40009E810E943E1891E0813009F090E0892F2A
:102C5000DF91CF911F910F91FF90EF900895CF9347
:102C6000DF93EA010E94F815982F882341F068E06D
:102C7000CE010E940D1A91E02885281390E0892F3B
:102C8000DF91CF9108950F931F93CF93DF93EC01C2
:102C90008B018D819E810E943E18B8018D819E819D
:102CA0000E942F1940E064EB8D819E810E94DF1805
:102CB0008D819E810E94B418182F8D819E810E9463
:102CC0003E1881E0111180E0DF91CF911F910F91AB
:102CD0000895CF93DF93CDB7DEB729970FB6F89459
:102CE000DEBF0FBECDBFFB012081203199F0AE01C8
:102CF0004F5F5F4F0E942F16882331F08D818F33F5
:102D0000A9F020F48F31A1F080E007C08F3521F0C9
:102D10008F37D1F78CE001C08BE029960FB6F8947D
:102D2000DEBF0FBECDBFDF91CF9108958AE0F5CF12
:102D300089E0F3CFEF92FF920F931F93CF93DF932E
:102D4000CDB7DEB761970FB6F894DEBF0FBECDBF2B
:102D50008C01FC01858196810E945019F801148232
:102D600041E0BE01665F7F4FF801858196810E9438
:102D70007F198823E9F1BE01665F7F4FC8010E9479
:102D8000B415882369F3F8018081811108C0BE0160
:102D9000665F7F4FC8010E944316811125C0AE01B6
:102DA0004F5F5F4FBE01665F7F4FC8010E94F815FD
:102DB000F801E180F12CBE01665F7F4FC8010E94DF
:102DC000691690E08E159F0544F4F8018181F801A1
:102DD000818384818F5F8483C3CFBE01665F7F4F11
:102DE000C8010E946916F3CF81E0F8018083D7CF34
:102DF00061960FB6F894DEBF0FBECDBFDF91CF91C5
:102E00001F910F91FF90EF900895CF93DF93CDB76F
:102E1000DEB729970FB6F894DEBF0FBECDBFAE0167
:102E20004F5F5F4F0E94F81581E09981911101C0B9
:102E300080E029960FB6F894DEBF0FBECDBFDF91BC
:102E4000CF9108958F929F92AF92BF92CF92DF92CF
:102E5000EF92FF920F931F93CF93DF93EC018A01C0
:102E600069506330B8F5E62FF0E0EE0FFF1FEA512E
:102E7000FD4FC080D1800115110589F18B81882318
:102E800071F1888181112BC00E942E094B015C01D8
:102E90000D2C000CEE08FF08B801CE010E940517AA
:102EA00081110BC00E942E096C197D098E099F09A2
:102EB000681579058A059B0578F3DF91CF911F91FD
:102EC0000F91FF90EF90DF90CF90BF90AF909F90C9
:102ED0008F9008958EEEC82E82E0D82ECCCFB6010A
:102EE000DD0C880B990BDF91CF911F910F91FF9013
:102EF000EF90DF90CF90BF90AF909F908F900C9409
:102F00005F09CF93DF93EC018D819E810E943E1873
:102F10008D819E810E944C19488164E48D819E813F
:102F20000E94DF188A81882341F040E050E06981E7
:102F3000CE01DF91CF910C942217DF91CF910895AC
:102F4000FA01218130E0322F2227330F330F330F64
:102F5000808148E0849FC0011124282B392BDB019C
:102F60008C918031C1F4678170E08681AB01481B90
:102F70005109CA019695982F8827979587950E94A1
:102F800083236051710953E0220F331F5A95E1F7F3
:102F90002078260F371FC9010895EF92FF920F93F3
:102FA0001F93CF93DF93CDB7DEB729970FB6F89471
:102FB000DEBF0FBECDBF8C017B01AE014F5F5F4F07
:102FC0000E942F168823A1F0AE014F5F5F4FB7011B
:102FD000C8010E94A01729960FB6F894DEBF0FBE55
:102FE000CDBFDF91CF911F910F91FF90EF9008958A
:102FF00080E894EEF0CF0E94CD17813824EE92073E
:103000006CF0BC01990F880B990B0E94AC1F20E05B
:1030100030E040E05CE30E946120089560E070E0F1
:103020008EEF92EC08950F931F93CF93DF93CDB75C
:10303000DEB728970FB6F894DEBF0FBECDBF8C0168
:10304000462FBE016F5F7F4F0E94C315882389F012
:10305000BE016F5F7F4FC8010E94FB1728960FB615
:10306000F894DEBF0FBECDBFDF91CF911F910F91BE
:10307000089560E070E08EEF92ECF0CFFF920F9336
:103080001F93CF93DF93FC011081C181D281F8940B
:103090008981012F00958023898378948DE7F82E0C
:1030A000FA94FF2061F182E090E00E948709888114
:1030B0008123B1F3F8948A8180238A838981812BCB
:1030C0008983789480EE91E00E948709F894898141
:1030D0008023898386E490E00E94870988811823F1
:1030E000C1E009F0C0E078948AE991E00E94870984
:1030F0008C2FDF91CF911F910F91FF900895C0E029
:10310000F7CF1F93CF93DF93FC011081C181D28150
:10311000812F809560FF16C0F8949A8189238A8355
:103120008981812B89838AE090E00E9487098A81C6
:10313000182B1A83789487E390E0DF91CF911F9149
:103140000C948709F8949A8189238A838981812B39
:10315000898381E490E00E9487098A81182B1A8371
:10316000789485E090E0E9CF0F931F93CF93DF939E
:10317000FC011081C181D281F8948981812B8983DE
:103180008A81012F009580238A8383E090E00E944A
:1031900087098981802389838AE090E00E948709DA
:1031A000C881789485E390E00E9487091C2381E020
:1031B00009F480E0DF91CF911F910F910895DF9284
:1031C000EF92FF920F931F93CF93DF93EC01D62ED4
:1031D000E42E08E010E0FF24F39461E08D2D8F21B0
:1031E00009F460E0CE010E948118FF0C0150110922
:1031F000A1F7E11010C0F894E981FA8191818881EA
:10320000809589238183E981FA81928188818095E3
:10321000892382837894DF91CF911F910F91FF9042
:10322000EF90DF900895EF92FF920F931F93CF934B
:10323000DF937C0108E010E0C0E0D1E0C7010E940C
:10324000B4188111CD2BDD0F01501109B9F78C2F66
:10325000DF91CF911F910F91FF90EF900895EF9222
:10326000FF920F931F93CF93DF937C018B0140E07C
:1032700065E50E94DF18E80110E0699140E0C701B0
:103280000E94DF181F5F1830C1F7DF91CF911F91A7
:103290000F91FF90EF90089540E06CEC0C94DF18D4
:1032A000FC01138615861486DC011B9633961E924C
:1032B000AE17BF07E1F708951F93CF93DF93EC019B
:1032C000162F60E0812F0E94F509612F70E0FB014D
:1032D000EA57FD4FE491E883FB01E656FD4FE49188
:1032E000F0E0EE0FFF1FE255FD4F859194919A8318
:1032F0008983CE01DF91CF911F910C945019BF9219
:10330000CF92DF92EF92FF920F931F93CF93DF93B1
:10331000EC01B62EC72E142FED84E11004C00E94DC
:103320003E1881110EC01B861D861C8680E0DF9131
:10333000CF911F910F91FF90EF90DF90CF90BF90B2
:10334000089540E0112369F160EFCE010E94DF187B
:10335000D12C01E011E0CE010E94B418F82ECE016C
:103360000E94B41891E0F9121EC0813009F03EC0ED
:10337000812F90E081349105B4F2EB86E11002C018
:1033800081E08D878B81882371F22396EB2DFC2DB4
:10339000CF01089629912193E817F907D9F781E021
:1033A000C6CF6CEED2CFED2DF0E0F81215C0212F74
:1033B00030E08B85482F50E024173507ACF4DE0150
:1033C000AE0FBF1F13968C91802381F4F12C29300E
:1033D00031050CF41C87E12EEC0FFD1F8381902F2B
:1033E0009095892383830AC01813F0CFFE01ED0D59
:1033F000F11D8381802B8383FF24F3946F2DCE01F5
:103400000E9481181F5F000F11F4D39401E08D2DED
:1034100090E008970CF49FCFABCFDC01E0E0615067
:1034200038F08D91E827F0E0E752FD4FE491F7CFB7
:103430008E2F0895FC0110821182128213828AE07D
:1034400090E095838483168217820895CF93DF934B
:10345000EC01862F6F831E820E945F0A892B11F078
:1034600083E08E830E942E09688379838A839B83FD
:10347000DF91CF910895FC01758364830895CF9205
:10348000DF92EF92FF921F93CF93DF93EC018F8136
:103490000E945F0A11E0892B09F410E08E81982FB9
:1034A000977F9E83869581701817B1F00E942E0930
:1034B000688379838A839B838E8192E089278E83B8
:1034C0008E8183FB882780F9DF91CF911F91FF9038
:1034D000EF90DF90CF9008950E942E09C880D98088
:1034E000EA80FB80AB01BC014C195D096E097F09C4
:1034F0008C819D81A0E0B0E0481759076A077B07DF
:10350000F8F28E8181701817D9F20E942E09688313
:1035100079838A839B838E8191E089278860CFCFCE
:10352000FC019681997081E0993009F080E008955E
:10353000DC01ED91FC910480F581E02D40E00994DF
:10354000DC011B96ED91FC911C97309741F033966E
:10355000E49119968C91E89F802D1124089580E0C4
:1035600008950F931F93CF938C01262F30E0FC0119
:10357000868190E02817390794F46483C085C60FCC
:103580006C2F6F70C8010E94981A6C2F62956F7033
:103590006061C801CF911F910F910C94981ACF913F
:1035A0001F910F910895462F50E0FC012781269529
:1035B0002695269530E04217530724F46583606B07
:1035C0000C94981A08951F93CF93DF93EC01142F56
:1035D0000E94B11A612FCE01DF91CF911F910C94FF
:1035E000D31ACF93DF93EC012C8130E08E8190E0F1
:1035F000281739075CF4E881F9810480F581E02D12
:1036000042E0CE0109958C818F5F8C83DF91CF9151
:103610000895AF92BF92CF92DF92EF92FF920F93F5
:103620001F93CF93DF93EC01E62EA22E8F81869518
:1036300086958695602F70E0282F30E0621773071B
:1036400014F00FEF080FFA2C10E0C42ED12C8F2DA0
:1036500090E0081719079CF04F2D6E2DCE010E94A7
:10366000E31ABE2C8B2D90E0C816D90634F060E02A
:10367000CE010E94F11AB394F5CFF394E8CF4A2D0E
:103680006E2DCE01DF91CF911F910F91FF90EF90A2
:10369000DF90CF90BF90AF900C94E31A0F93CF932D
:1036A000DF93EC010F8106950695069501504E813A
:1036B000415020E060E00E94091B81E09A85911151
:1036C00001C080E08A8760E4CE01DF91CF910F9145
:1036D0000C94981ADF92EF92FF920F931F93CF935F
:1036E000DF93EC011C821D82FB0105911491FB010B
:1036F0003296E4903196E491EE83FB013496E491A6
:10370000EF836B5F7F4FFB0164916887D12CF12CB5
:10371000ED2DF0E0EE15FF0544F4E00FF11F64918C
:10372000CE010E94981AD394F3CF1A86CE01DF916E
:10373000CF911F910F91FF90EF90DF900C944E1B53
:10374000FF920F931F93CF93DF93EC01FD800E94B4
:10375000A01A082F10E0095F1F4F83E01595079509
:103760008A95E1F7FA940F0D4E8141502D816C81BD
:10377000CE010E94091BDF91CF911F910F91FF9005
:1037800008952F923F924F925F926F927F928F9205
:103790009F92AF92BF92CF92DF92EF92FF920F93E0
:1037A0001F93CF93DF9300D000D000D0CDB7DEB70A
:1037B0009E838D83DC011B960D911C911C97011536
:1037C000110509F448C1F80174913196849131963C
:1037D000649031962491E22EF12CF7E0EF0EF11C6B
:1037E00093E0F594E7949A95E1F7F80134963491D3
:1037F0003196E491C62ED12CA32FB0E0CA16DB0679
:1038000044F04E2F50E0A40FB51FCA16DB060CF48F
:1038100057C06D3041F460E08D819E810E94B11AE5
:1038200081E090E01AC16A3009F015C1AD81BE8116
:1038300019968C91199715961C9115978E9D100DC0
:103840001124212F30E017968C9117978695869535
:10385000869590E0281739074CF01A968C911A97A4
:10386000882321F082E01A968C9310E0412F60E0CB
:103870008D819E810E94E31AED81FE81828590E018
:10388000029774F2CF010E94A01BAD81BE811996F0
:103890008C911997612F8E9D600D1124660F660F14
:1038A000660F262F30E017968C9190E082179307D1
:1038B0000CF460E060648D819E810E94981AB0CF04
:1038C00090E0972B0A5F1F4F631BED81FE81C1843F
:1038D00070E08230910508F05BC0892B09F0C12CA3
:1038E0006E9CC0016F9C900D1124869FF001879FF4
:1038F000F00D969FF00D11240E0F1F1F512CAD815E
:10390000BE811496BC91B983ED81FE81F581FA8365
:10391000412C862D90E09C838B83D12CA42CB12C40
:10392000AE14BF040CF091C0649C40011124312CF2
:103930009FEFA91AB90A232D30E0AD81BE811996F7
:103940008C9190E0281739070CF07DC0411002C01F
:10395000332041F0ED81FE8145814F5F6981CF01C8
:103960000E94E31A212CE22DF0E08B819C81E81764
:10397000F907A4F1712C872D90E08C159D050CF0B2
:1039800060C060E08D819E810E94F11A7394F3CF34
:10399000277091F088E0582E521A20E080E090E0E5
:1039A000E22FF0E0E617F7074CF4E00FF11FE49187
:1039B0008E0F911D2F5FF4CF512CEFCFF801E60F42
:1039C000F71F6490E89EF001E99EF00DF89EF00D5F
:1039D00011244E0F5F1F040F151F91CFE80DF91D25
:1039E000E00FF11F7490552061F0EA14FB0449F4D4
:1039F000E72DF0E0052C02C0F595E7950A94E2F773
:103A00007E2EAD81BE8119968C91823079F433205F
:103A1000A1F072948FE07822E72DF0E0E752FC4F9E
:103A20007490672D8D819E810E94F11A672D8D8182
:103A30009E810E94F11A239496CFB72DBF707B2EE2
:103A4000EBCF339478CF439469CF6A818D819E8187
:103A50000E94D31AE5CE80E090E026960FB6F89447
:103A6000DEBF0FBECDBFDF91CF911F910F91FF90B1
:103A7000EF90DF90CF90BF90AF909F908F907F900E
:103A80006F905F904F903F902F9008950F931F93EA
:103A9000CF93DF938230910510F482E090E0E091C3
:103AA000BA04F091BB0420E030E0A0E0B0E0309731
:103AB00099F42115310509F447C0281B390B24302E
:103AC0003105C0F58A819B816115710571F1FB019A
:103AD00093838283FE0111C0408151810281138151
:103AE00048175907F8F04817590799F4109761F0EB
:103AF00012960C93129713961C933296CF01DF9176
:103B0000CF911F910F9108950093BA041093BB04B5
:103B1000F4CF2115310519F04217530718F49A0113
:103B2000BD01EF01DF01F801C2CF9093BB04809388
:103B3000BA04D0CFFE01E20FF31F8193919322507C
:103B4000310939832883DACF2091B8043091B90440
:103B5000232B41F420910201309103013093B904E9
:103B60002093B80420910001309101012115310505
:103B700041F42DB73EB74091040150910501241B3B
:103B8000350BE091B804F091B904E217F307A0F403
:103B90002E1B3F0B2817390778F0AC014E5F5F4FA3
:103BA0002417350748F04E0F5F1F5093B904409318
:103BB000B80481939193A2CFE0E0F0E09FCFCF9340
:103BC000DF930097D1F0FC01329713821282A0910B
:103BD000BA04B091BB04109799F420813181820F0F
:103BE000931F2091B8043091B9042817390709F0C0
:103BF00066C0F093B904E093B804DF91CF910895C3
:103C0000ED0120E030E0CE17DF0708F03FC04A8129
:103C10005B819E0141155105B9F5E901FB83EA83FA
:103C200049915991C40FD51FEC17FD0761F48081AC
:103C300091810296840F951FE9019983888382817F
:103C400093819B838A83E0E0F0E012968D919C91B2
:103C500013970097C9F52D913C911197CD010296CC
:103C6000820F931F2091B8043091B90428173907A7
:103C700021F6309761F51092BB041092BA04B0930C
:103C8000B904A093B804B9CFEA01BDCFD383C283EE
:103C900040815181840F951FC817D90761F44E5F89
:103CA0005F4F88819981480F591F518340838A81D2
:103CB0009B81938382832115310509F0AECFF09368
:103CC000BB04E093BA0499CFFD01DC01BECF13829F
:103CD0001282D5CFF8940C944524AEE0B0E0E3E72F
:103CE000FEE10C9406240D891E8986E08C831A83DC
:103CF00009838FEF9FE79E838D83AE01475E5F4F01
:103D00006F89788DCE0101960E94D3202F8138854E
:103D1000020F131FF80110822E96E4E00C94222467
:103D20005058BB27AA270E94A81E0C9422200E944C
:103D3000142038F00E941B2020F039F49F3F19F422
:103D400026F40C9411200EF4E095E7FB0C940B2064
:103D5000E92F0E94332058F3BA17620773078407CC
:103D6000950720F079F4A6F50C9455200EF4E09513
:103D70000B2EBA2FA02D0B01B90190010C01CA0125
:103D8000A0011124FF27591B99F0593F50F4503ED0
:103D900068F11A16F040A22F232F342F4427585FC2
:103DA000F3CF469537952795A795F0405395C9F7DA
:103DB0007EF41F16BA0B620B730B840BBAF0915092
:103DC000A1F0FF0FBB1F661F771F881FC2F70EC031
:103DD000BA0F621F731F841F48F487957795679504
:103DE000B795F7959E3F08F0B0CF9395880F08F0F0
:103DF0009927EE0F9795879508950E94E71F08F47D
:103E000081E008950E94161F0C9422200E941B201E
:103E100058F00E94142040F029F45F3F29F00C94E0
:103E20000B2051110C9456200C9411200E94332029
:103E300068F39923B1F3552391F3951B550BBB27D9
:103E4000AA2762177307840738F09F5F5F4F220F1E
:103E5000331F441FAA1FA9F335D00E2E3AF0E0E815
:103E600032D091505040E695001CCAF72BD0FE2F5F
:103E700029D0660F771F881FBB1F261737074807F3
:103E8000AB07B0E809F0BB0B802DBF01FF279358AB
:103E90005F4F3AF09E3F510578F00C940B200C9444
:103EA00056205F3FE4F3983ED4F386957795679567
:103EB000B795F7959F5FC9F7880F911D96958795E0
:103EC00097F90895E1E0660F771F881FBB1F6217FF
:103ED00073078407BA0720F0621B730B840BBA0BBD
:103EE000EE1F88F7E09508950E947B1F6894B1113A
:103EF0000C94562008950E943B2088F09F5798F01C
:103F0000B92F9927B751B0F0E1F0660F771F881FDE
:103F1000991F1AF0BA95C9F714C0B13091F00E94F8
:103F20005520B1E008950C945520672F782F8827ED
:103F3000B85F39F0B93FCCF3869577956795B3951F
:103F4000D9F73EF490958095709561957F4F8F4F8E
:103F50009F4F0895E89409C097FB3EF49095809593
:103F6000709561957F4F8F4F9F4F9923A9F0F92F3F
:103F700096E9BB279395F695879577956795B795BD
:103F8000F111F8CFFAF4BB0F11F460FF1BC06F5FA3
:103F90007F4F8F4F9F4F16C0882311F096E911C0B5
:103FA000772321F09EE8872F762F05C0662371F0D6
:103FB00096E8862F70E060E02AF09A95660F771FEA
:103FC000881FDAF7880F9695879597F90895990FC6
:103FD0000008550FAA0BE0E8FEEF16161706E807D3
:103FE000F907C0F012161306E407F50798F0621BF4
:103FF000730B840B950B39F40A2661F0232B242BC9
:10400000252B21F408950A2609F4A140A6958FEFE7
:10401000811D811D089597F99F6780E870E060E039
:1040200008959FEF80EC089500240A941616170651
:1040300018060906089500240A9412161306140699
:1040400005060895092E0394000C11F4882352F0FC
:10405000BB0F40F4BF2B11F460FF04C06F5F7F4FB4
:104060008F4F9F4F089557FD9058440F551F59F09B
:104070005F3F71F04795880F97FB991F61F09F3F55
:1040800079F087950895121613061406551FF2CF7E
:104090004695F1DF08C0161617061806991FF1CFCE
:1040A00086957105610508940895E894BB276627F5
:1040B0007727CB0197F908950E94E71F08F48FEF47
:1040C00008950E9474200C9422200E94142038F03D
:1040D0000E941B2020F0952311F00C940B200C94CF
:1040E000112011240C9456200E94332070F3959FC8
:1040F000C1F3950F50E0551F629FF001729FBB27DF
:10410000F00DB11D639FAA27F00DB11DAA1F649F7A
:104110006627B00DA11D661F829F2227B00DA11D2D
:10412000621F739FB00DA11D621F839FA00D611DB3
:10413000221F749F3327A00D611D231F849F600DD4
:10414000211D822F762F6A2F11249F5750409AF0FD
:10415000F1F088234AF0EE0FFF1FBB1F661F771F89
:10416000881F91505040A9F79E3F510580F00C9454
:104170000B200C9456205F3FE4F3983ED4F38695D1
:1041800077956795B795F795E7959F5FC1F7FE2BF4
:10419000880F911D9695879597F908950E94E71FBE
:1041A000880B990B0895ABE0B0E0E9EDF0E20C94D8
:1041B000F8237C013B018A01FC011782168283816E
:1041C00081FFDAC1CE0101965C01F7019381F30111
:1041D00093FD859193FF81913F01882309F42FC1BD
:1041E000853239F493FD859193FF81913F018532AA
:1041F00029F4B70190E00E94D522E7CF912C212C21
:10420000312CFFE1F31538F08B32D9F090F4803285
:10421000D9F0833249F137FC41C020ED280F2A3014
:1042200070F536FE24C08AE0989E200D1124922E4F
:104230000EC08D32A9F0803371F7232D2160322E0C
:1042400006C0832D8260382EE32DE4603E2EF301FC
:1042500093FD859193FF81913F018111D2CF1EC0C3
:10426000F32DF8603F2EF3CF232D2061E8CFEAE055
:104270002E9E200D1124222EF32DF062F3CF8E32CC
:1042800029F436FCDCC0232D2064D9CF8C3621F4F0
:10429000832D8068382EDBCF8836C9F2982F9F7D1A
:1042A00095549330D8F08336C9F18337E9F18335DB
:1042B00009F068C0280122E0420E511CF801C080BC
:1042C000D18036FE45C0692D70E0C6010E94BF2234
:1042D0004C01F32DF0683F2E82010BC00C5F1F4F85
:1042E0009FE3998388248394912C6501F32DFF77B4
:1042F0003F2E33FC05C0822D90E08816990658F1B8
:10430000522C8114910471F5552009F45ECFB70148
:1043100080E290E00E94D5225A94F6CFF801808185
:1043200089830E5F1F4FDECF2801F2E04F0E511C34
:10433000F801C080D18036FE08C0692D70E0C6014A
:104340000E94CA224C018201D1CF6FEF7FEFF7CFDD
:104350006FEF7FEFBACFB70180E290E00E94D522E5
:104360002A94C9CFF60137FC859137FE81916F0100
:10437000B70190E00E94D52251105A9421E0821A90
:104380009108BFCF843611F08936C1F5F80137FEA8
:104390002CC060817181828193810C5F1F4FF32D4E
:1043A000FF763F2E97FF09C0909580957095619597
:1043B0007F4F8F4F9F4FF0683F2E2AE030E0A501DE
:1043C0000E940523C82ECA1836FE62C0232D2E7FF8
:1043D000422EC91408F09BC034FE05C032FC03C055
:1043E000832D8E7E482E892C55C060817181072EC9
:1043F000000C880B990B0E5F1F4FD1CF8537B9F496
:10440000232D2F7ED22E2AE030E0F801D7FE39C0CE
:1044100060817181828193810C5F1F4FA5010E9491
:104420000523C82ECA18FD2DFF773F2ECDCF932D23
:10443000997FD92E8F3611F148F48835B9F0F701FC
:10444000868197812B96E2E10C941424803751F0F9
:104450008837A9F7D4FE03C0FD2DF460DF2E20E1DC
:1044600030E0D3CFE92FE061DE2EF4CF34FE03C07D
:10447000292F2660D22E20E132E0C7CF28E030E09D
:10448000C4CF6081718180E090E00E5F1F4FC6CF86
:104490008C2C432C44FE44C0FE01EC0DF11D8081A8
:1044A0008033B9F5942D997E492EE42DE8705E2E67
:1044B00043FC44C040FE3EC0821408F044C02C0CB3
:1044C000922C981844FE44C0B70180E390E00E940B
:1044D000D52242FE07C041FC38C088E790E0B70112
:1044E0000E94D522C91408F440C0CA94D12CFFEF11
:1044F000CF1ADF0ACA0CDB1CF60182916F01B701EB
:1045000090E00E94D522AC14BD04B1F7FDCE8C2CF6
:10451000C1CF42FC02C08394C8CF83948394C5CF9B
:10452000842D867811F2F7CFB70180E290E00E94E7
:10453000D52283948214C0F3512CC4CF8214E0F7A7
:10454000522C5818BFCF9C2CBDCF88E590E0C7CF28
:10455000842D867839F241FE06C08BE247FC8DE25D
:10456000B70190E0BDCF80E2F9CFB70180E390E0E2
:104570000E94D5229A94B6CF8FEF9FEF63CFFC01B4
:104580000590615070400110D8F7809590958E0F7E
:104590009F1F0895FC016150704001900110D8F7F1
:1045A000809590958E0F9F1F08950F931F93CF9323
:1045B000DF93182F092FEB018B8181FD09C01FEFBD
:1045C0000FEF812F902FDF91CF911F910F910895C1
:1045D00082FF14C02E813F818C819D81281739076D
:1045E0003CF4E881F981CF01019699838883108397
:1045F0008E819F8101969F838E83E3CFE885F98525
:10460000812F0995892BA1F3DACFFA01AA27283047
:1046100051F1203181F1E8946F936E7F6E5F7F4F8F
:104620008F4F9F4FAF4FB1E03ED0B4E03CD0670F0B
:10463000781F891F9A1FA11D680F791F8A1F911D5E
:10464000A11D6A0F711D811D911DA11D20D009F4AE
:1046500068943F912AE0269F11243019305D3193F0
:10466000DEF6CF010895462F4770405D4193B3E0D9
:104670000FD0C9F7F6CF462F4F70405D4A3318F080
:10468000495D31FD4052419302D0A9F7EACFB4E031
:10469000A6959795879577956795BA95C9F70097E9
:1046A0006105710508959B01AC010A2E069457958A
:1046B000479537952795BA95C9F7620F731F841FE1
:1046C000951FA01D0895991B79E004C0991F9617A6
:1046D00008F0961B881F7A95C9F780950895AA1B44
:1046E000BB1B51E107C0AA1FBB1FA617B70710F0DD
:1046F000A61BB70B881F991F5A95A9F7809590950F
:10470000BC01CD01089597FB072E16F4009407D045
:1047100077FD09D00E946F2307FC05D03EF49095E9
:1047200081959F4F0895709561957F4F0895A1E2FF
:104730001A2EAA1BBB1BFD010DC0AA1FBB1FEE1F1B
:10474000FF1FA217B307E407F50720F0A21BB30B66
:10475000E40BF50B661F771F881F991F1A9469F7E2
:1047600060957095809590959B01AC01BD01CF013E
:104770000895052E97FB1EF400940E94D02357FD48
:1047800007D00E94972307FC03D04EF40C94D0234B
:1047900050954095309521953F4F4F4F5F4F08956D
:1047A00090958095709561957F4F8F4F9F4F08959D
:1047B000EE0FFF1F0590F491E02D0994A29FB00128
:1047C000B39FC001A39F700D811D1124911DB29F45
:1047D000700D811D1124911D08950E94DE23A59F57
:1047E000900DB49F900DA49F800D911D11240895EC
:1047F0002F923F924F925F926F927F928F929F92F1
:10480000AF92BF92CF92DF92EF92FF920F931F93DE
:10481000CF93DF93CDB7DEB7CA1BDB0B0FB6F8948F
:10482000DEBF0FBECDBF09942A88398848885F84CF
:104830006E847D848C849B84AA84B984C884DF8040
:10484000EE80FD800C811B81AA81B981CE0FD11D24
:104850000FB6F894DEBF0FBECDBFED010895F999F4
:10486000FECF92BD81BDF89A992780B50895262F75
:10487000F999FECF1FBA92BD81BD20BD0FB6F89445
:0E488000FA9AF99A0FBE01960895F894FFCFA8
:10488E000000BC042000FF4E41004F4E20004F465A
:10489E0046002573202D2025752E25752E25750095
:1048AE00253034752D253032752D25303275202565
:1048BE003032753A253032753A2530327500202067
:1048CE0020202D253032752D2530327520253032A1
:1048DE00753A253032753A253032750025303475EB
:1048EE002D20202D2530327520253032753A253079
:1048FE0032753A2530327500253034752D2530321B
:10490E00752D202020253032753A253032753A2506
:10491E0030327500253034752D253032752D253009
:10492E0032752020203A253032753A253032750006
:10493E00253034752D253032752D253032752025D4
:10494E003032753A20203A253032750025303475D4
:10495E002D253032752D2530327520253032753AA1
:10496E00253032753A202000595959592D4D4D2D6B
:10497E0044442048483A4D4D3A5353002573202560
:10498E003032753A253032753A253032752025731E
:10499E0000202020253032753A253032753A2530E8
:1049AE0032752025730025732020203A253032756C
:1049BE003A25303275202573002573202530327547
:1049CE003A20203A25303275202573002573202594
:1049DE003032753A253032753A2020202573002565
:1049EE007320253032753A253032753A25303275BE
:1049FE002020202000414C41524D2100536F004D8C
:104A0E006F004469004D6900446F004672005361A7
:104A1E00005754005745002A20007C027F02820274
:104A2E00850288028B028E02910294029702000088
:104A3E000000C11BF50DA808696E66006F76660052
:104A4E002E006E616E00000000009A10F50D1B1016
:104A5E0035102710781000000000A11174114311B9
:0C4A6E004B11611173115E00BC00770158
:00000001FF
