:100000000C946B030C9493030C9493030C94930340
:100010000C9493030C9493030C9493030C94D20DBF
:100020000C9493030C9493030C9493030C949303F8
:100030000C9493030C9493030C9493030C949303E8
:100040000C94AC090C9493030C942E0E0C94600E3B
:100050000C9493030C9493030C9493030C949303C8
:100060000C94CA130C9493030000000800020100D2
:100070000003040700000000000000000102040863
:100080001020408001020408102001020408102002
:10009000040404040404040402020202020203032E
:1000A00003030303000000002300260029000000D2
:1000B0000000250028002B0000000000240027007D
:1000C0002A000200000000003E5B4F5B3E3E6B4F8B
:1000D0006B3E1C3E7C3E1C183C7E3C181C577D57DA
:1000E0001C1C5E7F5E1C00183C1800FFE7C3E7FF86
:1000F0000018241800FFE7DBE7FF30483A060E2619
:1001000029792926407F050507407F05253F5A3C70
:10011000E73C5A7F3E1C1C08081C1C3E7F14227FB3
:1001200022145F5F005F5F06097F017F006689958B
:100130006A606060606094A2FFA29408047E040874
:1001400010207E201008082A1C08081C2A08081EF7
:10015000101010100C1E0C1E0C30383E3830060EDD
:100160003E0E06000000000000005F0000000700D7
:100170000700147F147F14242A7F2A122313086493
:100180006236495620500008070300001C22410037
:100190000041221C002A1C7F1C2A08083E08080077
:1001A0008070300008080808080000606000201017
:1001B0000804023E5149453E00427F4000724949D1
:1001C00049462141494D331814127F1027454545B2
:1001D000393C4A49493141211109073649494936D3
:1001E000464949291E000014000000403400000068
:1001F000081422411414141414004122140802019A
:100200005909063E415D594E7C1211127C7F4949C5
:1002100049363E414141227F4141413E7F49494962
:10022000417F090909013E414151737F0808087F58
:1002300000417F41002040413F017F081422417F5F
:10024000404040407F021C027F7F0408107F3E41F7
:1002500041413E7F090909063E4151215E7F09194E
:100260002946264949493203017F01033F40404066
:100270003F1F2040201F3F4038403F631408146355
:1002800003047804036159494D43007F4141410211
:1002900004081020004141417F0402010204404053
:1002A000404040000307080020545478407F284411
:1002B00044383844444428384444287F38545454FB
:1002C0001800087E090218A4A49C787F080404780A
:1002D00000447D40002040403D007F102844000045
:1002E000417F40007C047804787C0804047838441A
:1002F000444438FC1824241818242418FC7C0804CE
:100300000408485454542404043F44243C404020EE
:100310007C1C2040201C3C4030403C442810284499
:100320004C9090907C4464544C440008364100004A
:1003300000770000004136080002010204023C265A
:1003400023263C1EA1A161123A4040207A38545421
:1003500055592155557941225454784221555478A4
:100360004020545579400C1E52721239555555593A
:10037000395454545939555454580000457C41005F
:1003800002457D420001457C407D1211127DF0281E
:100390002528F07C545545002054547C547C0A098F
:1003A0007F4932494949323A4444443A324A4848FA
:1003B000303A4141217A3A42402078009DA0A07D08
:1003C0003D4242423D3D4040403D3C24FF242448C4
:1003D0007E4943662B2FFC2F2BFF0929F620C0886E
:1003E0007E090320545479410000447D413048483F
:1003F0004A32384040227A007A0A0A727D0D193159
:100400007D2629292F28262929292630484D4020B4
:10041000380808080808080808382F10C8ACBA2F90
:10042000102834FA00007B000008142A1422221439
:100430002A14085500550055AA55AA55AAFF55FF7C
:1004400055FF000000FF00101010FF00141414FFEF
:10045000001010FF00FF1010F010F0141414FC0036
:100460001414F700FF0000FF00FF1414F404FC1440
:100470001417101F10101F101F1414141F00101039
:1004800010F0000000001F101010101F10101010AE
:10049000F010000000FF101010101010101010FFCE
:1004A00010000000FF140000FF00FF00001F1017E5
:1004B0000000FC04F414141710171414F404F400CE
:1004C00000FF00F714141414141414F700F7141494
:1004D00014171410101F101F141414F4141010F01B
:1004E00010F000001F101F0000001F14000000FC8F
:1004F000140000F010F01010FF10FF141414FF147B
:100500001010101F00000000F010FFFFFFFFFFF0B1
:10051000F0F0F0F0FFFFFF0000000000FFFF0F0F02
:100520000F0F0F3844443844FC4A4A4A347E0202D2
:100530000606027E027E0263554941633844443C0C
:1005400004407E201E2006027E020299A5E7A5999E
:100550001C2A492A1C4C7201724C304A4D4D3030D5
:1005600048784830BC625A463D3E494949007E01C0
:1005700001017E2A2A2A2A2A44445F444440514ADF
:10058000444040444A51400000FF0103E080FF0026
:100590000008086B6B083612362436060F090F0662
:1005A000000018180000001010003040FF0101008A
:1005B0001F01011E00191D1712003C3C3C3C0000AD
:1005C0000000001F1C1F1E1F1E1F1F1E1F1E1F00BE
:1005D0005EBCE2613FDD83C29C7E20A3FD1F419D86
:1005E000C3217FFCA2401E5F01E3BD3E6082DC238D
:1005F0007D9FC1421CFEA0E1BF5D0380DE3C62BE68
:10060000E0025CDF81633D7C22C09E1D43A1FF466A
:1006100018FAA427799BC584DA3866E5BB5907DB4D
:10062000856739BAE406581947A5FB7826C49A6548
:100630003BD987045AB8E6A7F91B45C6987A24F82F
:10064000A6441A99C7257B3A6486D85B05E7B98C1E
:10065000D2306EEDB3510F4E10F2AC2F7193CD111D
:100660004FADF3702ECC92D38D6F31B2EC0E50AFF4
:10067000F1134DCE90722C6D33D18F0C52B0EE32FF
:100680006C8ED0530DEFB1F0AE4C1291CF2D73CADA
:10069000947628ABF517490856B4EA6937D58B57D5
:1006A00009EBB536688AD495CB2977F4AA4816E9C0
:1006B000B7550B88D6346A2B7597C94A14F6A874B7
:1006C0002AC896154BA9F7B6E80A54D7896B3500A6
:1006D0009409900EDB1211241FBECFEFD8E0DEBFCD
:1006E000CDBF15E0A0E0B1E0E4EDFBE502C0059070
:1006F0000D92A034B107D9F727E0A0E4B5E001C01E
:100700001D92AC32B207E1F713E0CBE6D3E004C0B0
:100710002197FE010E947B2DC836D107C9F70E94A0
:10072000D6100C940D280C9400000F931F93CF93B8
:10073000DF9321E04CE362E08BE795E00E947C1EB2
:1007400084E696E00E949C128AE795E00E9494203D
:1007500026E040E855E260E070E087EC95E00E941A
:10076000AC1184E190E00E94E42690937905809397
:10077000780584E190E00E94E426909377058093C9
:10078000760560E084E00E94BD0A64E070E08DE4DC
:1007900095E00E943C2668EE73E08DE495E00E94AF
:1007A000512660E085E00E94BD0A65E070E085E4C6
:1007B00095E00E943C2668EE73E085E495E00E9497
:1007C000512685E595E00E94B02200E415E0C0E0E6
:1007D000D0E0CE010E94D22DF80181938F012196A5
:1007E000C530D105B1F7DF91CF911F910F910895D9
:1007F000EF92FF920F931F93CF93DF9300D000D01F
:1008000000D0CDB7DEB749835A836B837C838D8359
:100810009E83E0917805F091790584E1DF01982FBE
:100820001D929A95E9F7E0917605F0917705DF0141
:100830001D928A95E9F7898190E08053984F64E68C
:1008400070E00E94122DF82EE92E0A811B81CE0144
:1008500001960E9487208A3008F043C0E82FF0E01C
:10086000EE0FFF1FE855FB4F80819181EF92FF92C1
:100870001F920F931F921F939F938F9381E293E098
:100880009F938F93809177058F93809176058F93B7
:100890000E9410288E811F928F938D811F928F93BB
:1008A0008C811F928F9384E993E09F938F93809123
:1008B00079058F93809178058F930E9410280FB649
:1008C000F894DEBF0FBECDBF26960FB6F894DEBFFC
:1008D0000FBECDBFDF91CF911F910F91FF90EF9091
:1008E000089587E193E0C2CFFC016230710539F1D0
:1008F0003CF46115710571F061307105C1F0089526
:100900006430710509F43FC0B4F16530710509F434
:1009100042C00895808191810196823028E092073B
:1009200018F491838083089580ED97E0FACF828157
:100930008F5F8D3010F48283089581E0FCCF838136
:100940008F5F83839281923071F420813181237093
:100950003327232B29F48C3128F181E083830895F8
:100960008D31D8F7089590FD03C08F31B0F7089509
:10097000803298F7089584818F5F883110F48483E2
:1009800008951482089585818F5F8C3310F48583D8
:1009900008951582089586818F5F8C3310F48683C5
:1009A0000895168208958230910511F12CF4009774
:1009B00049F0019791F008958330910521F1049752
:1009C00069F10895809140058F5F8A3018F4809313
:1009D00040050895109240050895809141058F5F6C
:1009E000883118F4809341050895109241050895C7
:1009F000809142058F5F8C3318F4809342050895EF
:100A0000109242050895809143058F5F8C3318F44E
:100A100080934305089510924305089580914405FD
:100A200091E089278093440508950F931F93CF93F6
:100A3000DF93CDB7DEB76E970FB6F894DEBF0FBE6B
:100A4000CDBFFC018E010F5F1F4F442309F186814A
:100A50001F928F9385811F928F9384811F928F9312
:100A600083811F928F9382811F928F9381818F93B5
:100A700080818F938FE293E09F938F931F930F93C7
:100A80000E9410280FB6F894DEBF0FBECDBF0AC07B
:100A9000623009F47DC0B8F5662309F44EC06130B8
:100AA00009F463C08BE795E00E94021E61E070E0EC
:100AB0008BE795E00E94711A61E08BE795E00E9458
:100AC0006B1A4AE050E061E070E08BE795E00E942D
:100AD000651AB8018BE795E00E94170F67EF73E086
:100AE0008BE795E00E94170F8BE795E00E94AF1F00
:100AF0006E960FB6F894DEBF0FBECDBFDF91CF91DB
:100B00001F910F910895643009F468C008F453C030
:100B1000653041F685811F928F9384811F928F9358
:100B200083811F928F9382811F928F9381818F93F4
:100B300080818F938BED93E011C086811F928F93FC
:100B400085811F928F9384811F928F9383811F923F
:100B50008F9382811F928F938DE493E09F938F9365
:100B60001F930F930E9410288DCF86811F928F9321
:100B700085811F928F9384811F928F9383811F920F
:100B80008F9381818F9380818F938BE693E0E6CF63
:100B900086811F928F9385811F928F9384811F92EC
:100BA0008F9382811F928F9381818F9380818F9306
:100BB00087E893E0D3CF86811F928F9385811F9220
:100BC0008F9383811F928F9382811F928F93818154
:100BD0008F9380818F9383EA93E0C0CF86811F92A9
:100BE0008F9384811F928F9383811F928F93828131
:100BF0001F928F9381818F9380818F938FEB93E0EE
:100C0000ADCF0F931F93CF93DF93CDB7DEB762972E
:100C10000FB6F894DEBF0FBECDBF8E010F5F1F4F22
:100C200092E1F80111929A95E9F76623A9F1809172
:100C3000440581112BC02DE133E0609143055091B3
:100C4000420540914105E0914005EA3010F5F0E0A1
:100C5000EE0FFF1FE855FB4F808191813F932F934B
:100C60001F926F931F925F931F924F939F938F9347
:100C70008BE094E09F938F931F930F930E94102813
:100C80000FB6F894DEBF0FBECDBF10C02AE133E02F
:100C9000D4CF87E193E0E2CF823009F49AC088F59F
:100CA000882309F450C0813009F46DC08BE795E0CA
:100CB0000E94021E61E070E08BE795E00E94711ACD
:100CC00061E08BE795E00E946B1A4AE050E06FE02C
:100CD00070E08BE795E00E94651AB8018BE795E01C
:100CE0000E94170F8BE795E00E94AF1F62960FB628
:100CF000F894DEBF0FBECDBFDF91CF911F910F9152
:100D00000895833009F48BC0843081F64091430507
:100D10003091420520914105E0914005EA3008F00C
:100D2000A4C0F0E0EE0FFF1FE855FB4F80819181DA
:100D30001F924F931F923F931F922F939F938F93D6
:100D40008EE694E016C080914405811119C08DE1B2
:100D500093E09F938F93809143051F928F9380918F
:100D600042051F928F93809141051F928F9380E2DD
:100D700094E09F938F931F930F930E94102880CF2E
:100D80008AE193E0E6CF8091440581111CC02DE1FA
:100D900033E05091430540914205E0914005EA302F
:100DA000A8F4F0E0EE0FFF1FE855FB4F8081918122
:100DB0003F932F931F925F931F924F939F938F9315
:100DC00085E394E0D6CF2AE133E0E3CF87E193E0F7
:100DD000EFCF8091440581111CC02DE133E050918B
:100DE000430540914105E0914005EA30A8F4F0E068
:100DF000EE0FFF1FE855FB4F808191813F932F93AA
:100E00001F925F931F924F939F938F9388E494E078
:100E1000B0CF2AE133E0E3CF87E193E0EFCF8091D9
:100E2000440581111CC02DE133E0509142054091F1
:100E30004105E0914005EA30A8F4F0E0EE0FFF1F15
:100E4000E855FB4F808191813F932F931F925F93D1
:100E50001F924F939F938F938BE594E08ACF2AE163
:100E600033E0E3CF87E193E0EFCF87E193E060CF1A
:100E70008F929F92AF92BF92CF92EF92FF920F9379
:100E80001F93CF93DF93CDB7DEB763970FB6F89478
:100E9000DEBF0FBECDBFF82E8AE795E00E940D2180
:100EA000832F30E02053384F3A8329838B834C8340
:100EB0005D836E837F830E94F6094B015C016AE0CB
:100EC00070E08DE495E00E9451266AE070E085E4D0
:100ED00095E00E94512601E010E0EE24E39485E4C1
:100EE00095E00E9455268DE495E00E9455268DE4FC
:100EF00095E00E94A6268823C9F11F5F163090F165
:100F0000F11064C069817A81CF80EE800D812C81DF
:100F10004B81CE0108960E947320BE01685F7F4F0F
:100F20008AE795E00E94962068EE73E08DE495E0F4
:100F30000E94512668EE73E085E495E00E945126F8
:100F400063960FB6F894DEBF0FBECDBFDF91CF9191
:100F50001F910F91FF90EF90CF90BF90AF909F9017
:100F60008F900895153011F4F11030C085E495E0AC
:100F70000E94A626882349F0812F90E0F1101EC020
:100F8000BC01CE0101960E9474040E94F609681902
:100F900079098A099B096D3271408105910528F014
:100FA0000E250E94F6094B015C01F1100AC0402F8A
:100FB000612FCE0101960E94150591CF0E94D304A6
:100FC000E4CF602F812F0E94010689CF80E4A82EF4
:100FD00085E0B82E00E010E0F50161915F01C801E5
:100FE0000E94DA2D0F5F1F4F05301105A9F79CCF26
:100FF000CF92DF92EF92FF92CF930E94F6096B019E
:101000007C016AE070E08DE495E00E9451266AE080
:1010100070E085E495E00E94512620E030E0A901CF
:1010200068EE73E086E00E94510BC0E0CF5FC931EB
:1010300009F043C086E00E94BD0D8BE795E00E9459
:10104000021E61E070E08BE795E00E94711A62E099
:101050008BE795E00E946B1A4AE050E06EE170E089
:101060008BE795E00E94651A63E874E08BE795E0F2
:101070000E94170F8BE795E00E94AF1F0E94F609B0
:101080006C197D098E099F09613C77428940910561
:1010900008F186E00E94BD0D68EE73E08DE495E0F6
:1010A0000E94512668EE73E085E495E0CF91FF90B1
:1010B000EF90DF90CF900C945126C23309F0BDCF52
:1010C00020E030E0A90168EE73E086E00E94510B59
:1010D000C0E0B3CF85E495E00E9455268DE495E00D
:1010E0000E9455268DE495E00E94A6268111D1CF5D
:1010F00085E495E00E94A626882309F497CFC9CFFE
:101100000F931F93CF93DF9300D000D000D0CDB7C3
:10111000DEB749835A836B837C838D839E83809162
:101120004405882309F454C0109140051830C1F1DA
:10113000193009F1CE010196173009F045C00E941F
:101140008720882371F0CE0101960E94872090E0CD
:1011500006971CF5CE0101960E948720082F10E00B
:1011600002C001E010E0CE0101960E94872090E0CD
:101170000817190769F5909141058C81981328C0CB
:10118000909142058D81981323C0909143058E81E3
:1011900098131EC00E94F8071BC005E010E0E3CFC3
:1011A000CE0101960E94872090E0069754F0CE0170
:1011B00001960E94872090E0089764F207E010E013
:1011C000D2CF06E010E0CFCF0E948720181799F207
:1011D00026960FB6F894DEBF0FBECDBFDF91CF913C
:1011E0001F910F910895CF93DF9300D000D000D0CE
:1011F000CDB7DEB78AE795E00E940D21F42FE52FE9
:10120000CB0129833A83FB83EC836D839E83A90101
:101210006F2F7E2F0E94F80385E595E00E949723AB
:101220008BE795E00E94021E61E070E08BE795E09D
:101230000E94711A61E08BE795E00E946B1A40E012
:1012400050E061E070E08BE795E00E94651A6091E4
:101250007605709177058BE795E00E94FA0E61E8BC
:1012600074E08BE795E00E94FA0E60E085E595E07A
:101270000E942924AB01BC0122E030E08BE795E01D
:101280000E94D11067EF8BE795E00E94FC0E63E4AB
:101290008BE795E00E94290F62E08BE795E00E94C2
:1012A0006B1A4FE050E064E170E08BE795E00E943C
:1012B000651A60917805709179058BE795E00E9439
:1012C000170F8BE795E00E94AF1F85E495E00E9421
:1012D0005526882349F085E495E00E94A6268823B8
:1012E00019F081E00E9438078DE495E00E945526B0
:1012F000882349F08DE495E00E94A626882319F002
:1013000080E00E94380749815A816B817C818D8100
:101310009E810E94800826960FB6F894DEBF0FBE0D
:10132000CDBFDF91CF91089564E08BE795E00E94F7
:10133000E91D62E088E695E00E94722568E675E0A6
:1013400085E595E00E94BB218DE495E00E94302662
:1013500085E495E00C9430261F920F920FB60F9201
:1013600011242F933F938F939F93AF93BF938091BB
:10137000AA059091AB05A091AC05B091AD05309157
:10138000A90523E0230F2D3758F50196A11DB11DA6
:101390002093A9058093AA059093AB05A093AC0573
:1013A000B093AD058091AE059091AF05A091B005C9
:1013B000B091B1050196A11DB11D8093AE0590932A
:1013C000AF05A093B005B093B105BF91AF919F91C8
:1013D0008F913F912F910F900FBE0F901F901895F6
:1013E00026E8230F0296A11DB11DD2CF2FB7F89486
:1013F0006091AA057091AB058091AC059091AD0507
:101400002FBF08953FB7F8948091AE059091AF0536
:10141000A091B005B091B10526B5A89B05C02F3F9E
:1014200019F00196A11DB11D3FBFBA2FA92F982F0A
:101430008827BC01CD01620F711D811D911D42E005
:10144000660F771F881F991F4A95D1F70895CF928D
:10145000DF92EF92FF92CF93DF936B017C010E94AA
:10146000020AEB01C114D104E104F10439F4DF9163
:10147000CF91FF90EF90DF90CF9008950E94500B96
:101480000E94020A6C1B7D0B683E734058F381E09A
:10149000C81AD108E108F108C851DC4FE3CF019721
:1014A00039F0880F991F880F991F02970197F1F75C
:1014B0000895789484B5826084BD84B5816084BDCC
:1014C00085B5826085BD85B5816085BDEEE6F0E0BD
:1014D000808181608083E1E8F0E010828081826019
:1014E0008083808181608083E0E8F0E0808181609A
:1014F0008083E1EBF0E0808184608083E0EBF0E0CA
:10150000808181608083EAE7F0E08081846080836D
:101510008081826080838081816080838081806817
:1015200080831092C1000895833081F028F48130C7
:1015300099F08230A9F008958730A9F08830C9F079
:101540008430B1F4809180008F7D03C08091800051
:101550008F7780938000089584B58F7784BD089538
:1015600084B58F7DFBCF8091B0008F778093B000E2
:1015700008958091B0008F7DF9CFCF93DF9390E0F5
:10158000FC01E458FF4F249180579F4FFC01849148
:101590008823C9F090E0880F991FFC01E854FF4FA1
:1015A000A591B491FC01E255FF4FC591D491611111
:1015B0000DC09FB7F8948C91209582238C938881DD
:1015C000282328839FBFDF91CF910895623051F483
:1015D0009FB7F8943C91822F809583238C93E88168
:1015E0002E2BEFCF8FB7F894EC912E2B2C938FBF2F
:1015F000EACF1F93CF93DF93162F282F30E0F90106
:10160000E859FF4F8491F901E458FF4FD491F90153
:10161000E057FF4FC491CC23A1F081110E94940A9E
:10162000EC2FF0E0EE0FFF1FE255FF4FA591B491B4
:101630008FB7F894EC91111108C0D095DE23DC939C
:101640008FBFDF91CF911F910895DE2BF8CFCF93FD
:10165000DF93282F30E0F901E859FF4F8491F90119
:10166000E458FF4FD491F901E057FF4FC491CC23C8
:10167000A1F081110E94940AEC2FF0E0EE0FFF1F01
:10168000EC55FF4FA591B491EC91ED2381E090E0F2
:1016900009F480E0DF91CF91089580E090E0FACFE7
:1016A00008953F924F925F926F927F928F929F9296
:1016B000AF92BF92CF92DF92EF92FF920F931F9360
:1016C000CF93DF9300D000D0CDB7DEB78B012901D7
:1016D0003A0190910601891709F43CC09F3F09F037
:1016E0003EC080930601E2ECF0E034909FEF3916A3
:1016F00009F435C0E1E03E1609F4C5C03E1608F411
:1017000044C0F2E03F1229C01092B0001092B10024
:101710009091B00092609093B0009091B100916070
:101720009093B100282F30E0F901E057FF4FE4918A
:10173000F0E0EE0FFF1FE255FF4F4591549150939B
:10174000B4054093B305F901E458FF4FE491E093E9
:10175000B2053BC0E2ECF0E0349037FE36C00F90AB
:101760000F900F900F90DF91CF911F910F91FF90ED
:10177000EF90DF90CF90BF90AF909F908F907F9031
:101780006F905F904F903F90089514BC15BC94B536
:10179000926094BD95B5916095BD282F30E0F90118
:1017A000E057FF4FE491F0E0EE0FFF1FE255FF4FCF
:1017B000459154915093C2054093C105F901E458F5
:1017C000FF4FE491E093C005312C61E00E94BD0A17
:1017D0004801A12CB12C832D8D7F09F02AC160E036
:1017E00072E18AE790E0A50194010E945C2D2983B3
:1017F0003A834B835C8369017A0181E0C81AD1087E
:10180000E108F1089FEFC916D104E104F10409F0E1
:101810000CF4D6C060E472E48FE090E0A50194017E
:101820000E945C2D69017A01E1E0CE1AD108E1083D
:10183000F108F2E03F124DC08FEFC816D104E10469
:10184000F10409F00CF477C160E970ED83E090E0F9
:10185000A50194010E945C2D69017A0191E0C91AE9
:10186000D108E108F108EFEFCE16D104E104F1044C
:1018700011F00CF03DC183E09091B100987F892B6D
:101880008093B100A4C010928000109281009091CA
:101890008100986090938100909181009160909375
:1018A0008100282F30E0F901E057FF4FE491F0E08C
:1018B000EE0FFF1FE255FF4F459154915093BB052A
:1018C0004093BA05F901E458FF4FE491E093B9055C
:1018D0007CCFFFEFCF16D104E104F10409F00CF442
:1018E000A2C068E478EE81E090E0A50194010E9436
:1018F0005C2D69017A0181E0C81AD108E108F1087C
:10190000332009F40EC184E09FEFC916D104E1042D
:10191000F10409F008F455C062E17AE780E090E054
:10192000A50194010E945C2D69017A01E1E0CE1AC3
:10193000D108E108F108FFEFCF16D104E104F1046A
:1019400009F050F586E098CF64E274EF80E090E013
:10195000A50194010E945C2D69017A0191E0C91AE8
:10196000D108E108F10885E0CFCF62E17AE780E0B5
:1019700090E0A50194010E945C2D69017A01E1E0EB
:10198000CE1AD108E108F108FFEFCF16D104E10427
:10199000F10409F008F449C0C980DA80EB80FC80CA
:1019A0009AE0F594E794D794C7949A95D1F781E09B
:1019B000C81AD108E108F1083320C9F187E05CCFEB
:1019C00081E0311059CF95B5987F892B85BD4114A1
:1019D00051046104710409F477C0D801AA0FBB1F38
:1019E000A30192010E94902D28EE33E040E050E0E8
:1019F0000E943A2D91E0391609F443C0E2E03E1608
:101A000009F466C03110ABCEC7BC2093C305309338
:101A1000C4054093C5055093C60580916E00826051
:101A200080936E009CCE82E0CCCF84E0CCCF85E06A
:101A3000CACF60E072E18AE790E0A50194010E94BC
:101A40005C2D69017A0191E0C91AD108E108F10819
:101A5000C114D104E1E0EE06F1042CF591E081E03F
:101A60003812B5CF80918100887F892B80938100C7
:101A7000411451046104710409F0AFCF2FEF3FEF1F
:101A8000A901D0928900C09288002093BC053093B0
:101A9000BD054093BE055093BF0580916F008260E5
:101AA00080936F005CCE68E478EE81E090E0A50161
:101AB00094010E945C2D69017A01F1E0CF1AD108EE
:101AC000E108F10893E0CBCF2FEF3FEFA90192CFD0
:101AD000C092B3002093B5053093B6054093B70587
:101AE0005093B8058091700082608093700037CE6B
:101AF00068E478EE81E090E0A50194010E945C2DFD
:101B000069017A01F1E0CF1AD108E108F1088FEFFD
:101B1000C816D104E104F10411F00CF015CF84E0F3
:101B2000ABCE9FEFC916D104E104F10411F00CF023
:101B30001CCF83E048CF82E09FCE813039F018F08F
:101B4000823051F0089510926E00089580916F00D8
:101B50008D7F80936F000895809170008D7F8093BA
:101B6000700081E08093B0008091B100887F846034
:101B70008093B1001092B3000895CF93C82F809145
:101B80000601C8130DC0E2ECF0E084919FEF909342
:101B900006010E949D0D60E08C2FCF910C94F90AF4
:101BA0008FEFF7CF1F920F920FB60F9211242F9342
:101BB0003F934F935F936F937F938F939F93AF93D5
:101BC000BF93EF93FF938091B5059091B605A091D7
:101BD000B705B091B805892B8A2B8B2BD1F1809159
:101BE000B205E091B305F091B40590818927808317
:101BF0008091B5059091B605A091B705B091B80553
:101C0000181619061A061B069CF48091B5059091CA
:101C1000B605A091B705B091B8050197A109B10922
:101C20008093B5059093B605A093B705B093B8051A
:101C3000FF91EF91BF91AF919F918F917F916F91A4
:101C40005F914F913F912F910F900FBE0F901F907A
:101C50001895809106010E94BD0DEACF1F920F9248
:101C60000FB60F9211242F938F939F93EF93FF93AF
:101C7000E091D705F091D8058081E091DD05F091E4
:101C8000DE0582FD1BC090818091E0058F5F8F7320
:101C90002091E105821741F0E091E005F0E0E95381
:101CA000FA4F958F8093E005FF91EF919F918F916F
:101CB0002F910F900FBE0F901F9018958081F4CF39
:101CC0001F920F920FB60F9211242F933F934F93B1
:101CD0005F936F937F938F939F93AF93BF93EF9394
:101CE000FF9387EC95E00E942111FF91EF91BF9146
:101CF000AF919F918F917F916F915F914F913F91A4
:101D00002F910F900FBE0F901F90189587EC95E0C4
:101D10000E94E51021E0892B09F420E0822F08952C
:101D2000E7ECF5E01382128288EE93E0A0E0B0E0E9
:101D300084839583A683B7838EEC94E0918380831C
:101D400085EC90E09587848784EC90E09787868780
:101D500080EC90E0918B808B81EC90E0938B828B78
:101D600082EC90E0958B848B86EC90E0978B868B51
:101D7000118E128E138E148E0895CF92DF92EF92F1
:101D8000FF920F931F93CF93DF936C01EB017B01C5
:101D9000E40EF51E00E010E0CE15DF0561F069915C
:101DA000D601ED91FC910190F081E02DC6010995DD
:101DB000080F191FF1CFC801DF91CF911F910F912B
:101DC000FF90EF90DF90CF9008956115710579F045
:101DD000FB0101900020E9F73197AF01461B570B3B
:101DE000DC01ED91FC910280F381E02D099480E00B
:101DF00090E008950C94E50EDC01ED91FC910190CA
:101E0000F081E02D09940F931F93CF93DF93EC01A2
:101E10006DE00E94FC0E8C016AE0CE010E94FC0E77
:101E2000800F911FDF91CF911F910F9108950F9314
:101E30001F93CF93DF93EC010E94E50E8C01CE013E
:101E40000E94030F800F911FDF91CF911F910F917F
:101E500008950F931F93CF93DF93EC010E94FC0E24
:101E60008C01CE010E94030F800F911FDF91CF9153
:101E70001F910F9108958F929F92AF92BF92CF9230
:101E8000DF92EF92FF920F931F93CF93DF93CDB723
:101E9000DEB7A1970FB6F894DEBF0FBECDBF6C01C1
:101EA000142FE52FCB01022F19A230E0223031058B
:101EB0000CF40AE07E0121E2E20EF11C802E912C4E
:101EC000A12CB12C612F7E2FA50194010E943A2DE7
:101ED000029F1019112481E0E81AF1081A300CF55C
:101EE000105DF7011083122FE32FCA01232B242B3F
:101EF000252B41F7B701C6010E94E50EA1960FB64A
:101F0000F894DEBF0FBECDBFDF91CF911F910F912F
:101F1000FF90EF90DF90CF90BF90AF909F908F9009
:101F20000895195CDECFCF92DF92EF92FF920F936C
:101F30001F93CF93DF93EC016A017B0121153105DB
:101F400079F4E881F9810190F081E02D642FDF912F
:101F5000CF911F910F91FF90EF90DF90CF90099458
:101F60002A303105E9F477FF1AC06DE20E94FC0EB9
:101F70008C0144275527BA014C195D096E097F0968
:101F80002AE0CE010E943B0F800F911FDF91CF917D
:101F90001F910F91FF90EF90DF90CF9008952AE06E
:101FA000B701A601CE01DF91CF911F910F91FF9054
:101FB000EF90DF90CF900C943B0F9A01AB01770F1D
:101FC000660B770B0C94930F5F926F927F928F92B8
:101FD0009F92AF92BF92CF92DF92EF92FF920F93B8
:101FE0001F93CF93DF93EC016A017B01522E9A017C
:101FF000AB01C701B6010E94712A882309F493C07E
:1020000066EC74E0ABC02FEF3FEF4FE75FE4C70132
:10201000B6010E94FF2918161CF460EC74E09EC003
:102020002FEF3FEF4FE75FECC701B6010E94A028FA
:1020300087FDF3CF20E030E0A901C701B6010E947F
:10204000A02887FF1DC06DE2CE010E94FC0E8C010E
:10205000F7FAF094F7F8F094B12C60E070E080E0CB
:102060009FE3652C712C2B2D30E0261537055CF491
:1020700020E030E040E251E40E94A528B394F3CF81
:1020800000E010E0E9CFA70196010E9434286B011F
:102090007C010E941E294B015C012AE0AB01BC01BE
:1020A000CE010E943B0F080F191F672809F468C072
:1020B000C501B4010E944D299B01AC01C701B601C5
:1020C0000E9433286B017C0164EC74E0CE010E9415
:1020D000E50E080F191F552009F452C020E030E02A
:1020E00040E251E4C701B6010E94042A4B015C01A1
:1020F0000E9417296B017C014AE050E0CE010E944A
:10210000DD0F080F191FB601DD0C880B990B0E941B
:102110004F299B01AC01C501B4010E9433286B011A
:102120007C015A94D8CF46015701E894B7F82FEFB5
:102130003FEF4FE75FE7C501B4010E94712A8111AB
:1021400062CF2FEF3FEF4FE75FE7C501B4010E9479
:10215000A02818160CF057CF6CEB74E0CE01DF917D
:10216000CF911F910F91FF90EF90DF90CF90BF9094
:10217000AF909F908F907F906F905F900C94E50E42
:10218000C801DF91CF911F910F91FF90EF90DF90E9
:10219000CF90BF90AF909F908F907F906F905F9007
:1021A00008950C94E40F0E94082808950E94590A8B
:1021B0000E94D5100E949503C3E1D1E10E94F3086B
:1021C0002097E1F30E941311F9CFFC01918D228D2C
:1021D000892F90E0805C9F4F821B91098F73992714
:1021E0000895FC01918D828D981731F0828DE80F52
:1021F000F11D858D90E008958FEF9FEF0895FC010C
:10220000918D828D981761F0828DDF01A80FB11D2D
:102210005D968C91928D9F5F9F73928F90E0089551
:102220008FEF9FEF089586E89EE0892B49F080E0CC
:1022300090E0892B29F00E94860E81110C940000F9
:102240000895FC01848DDF01A80FB11DA35ABF4F73
:102250002C91848D90E001968F739927848FA689A5
:10226000B7892C93A089B1898C9180648C93938DCC
:10227000848D981306C00288F389E02D80818F7DBC
:1022800080830895CF93DF93EC01888D882351F0EC
:10229000EA89FB89808185FD08C0A889B9898C916C
:1022A00086FF03C0DF91CF9108950FB607FCF2CFF0
:1022B000808185FFEFCFA889B9898C9185FFEACF0E
:1022C000CE010E942111E4CFEF92FF920F931F9352
:1022D000CF93DF93EC01F62E9B8D8C8D981305C068
:1022E000E889F989808185FD2EC00B8D10E00F5F94
:1022F0001F4F0F731127E02E8C8DE8120CC00FB604
:1023000007FCFACFE889F989808185FFF5CFCE01F6
:102310000E942111F1CF8B8DFE01E80FF11DE35AD0
:10232000FF4FF0820B8FEA89FB8980818062808376
:1023300081E0888F81E090E0DF91CF911F910F9134
:10234000FF90EF900895EE89FF896083E889F9890D
:10235000808180648083EECFCF92DF92EF92FF92F4
:102360001F93CF93DF93EC016A017B01122FE88961
:10237000F98982E080834115514E61057105A1F014
:1023800060E079E08DE390E0A70196010E943A2D8C
:10239000215031094109510956954795379527959F
:1023A000211580E1380798F0E889F989108260E802
:1023B00074E88EE190E0A70196010E943A2D215029
:1023C0003109410951095695479537952795EC856F
:1023D000FD853083EE85FF852083188EEC89FD898D
:1023E0001083EA89FB89808180618083EA89FB8987
:1023F000808188608083EA89FB898081806880830E
:10240000EA89FB8980818F7D8083DF91CF911F9145
:10241000FF90EF90DF90CF9008958091940690E028
:1024200020919506821B9109089520919506822F8F
:1024300090E04091940650E0841795074CF48A563A
:10244000994FFC01808190E02F5F209395060895BD
:102450008FEF9FEF08958091950690E0209194066C
:1024600030E08217930734F48A56994FFC0180813B
:1024700090E008958FEF9FEF08950895CF92DF9237
:10248000EF92FF920F931F93CF93DF937C01CB01C9
:102490008A0120917006222389F0EB016B01C40EA2
:1024A000D51ECC15DD0569F06991D701ED91FC9140
:1024B0000190F081E02DC7010995F3CF642F0E94B0
:1024C000A113C801DF91CF911F910F91FF90EF9061
:1024D000DF90CF900895CF93DF931F92CDB7DEB7F3
:1024E000698320917006222309F12091710630E062
:1024F000203231055CF021E030E0FC01338322839F
:1025000080E090E00F90DF91CF9108958091720666
:10251000E82FF0E0ED58F94F998190838F5F809319
:1025200072068093710681E090E0ECCF61E0CE010D
:1025300001960E94A113F7CF10929506109294066F
:1025400010927206109271060C94EC12862F642F72
:1025500070E0613271050CF040E266E976E00E94BD
:102560000A131092950680939406089521E00C9426
:10257000A61281E080937006609393061092720613
:102580001092710608950C94B9120F93062F21E052
:102590004091710663E776E0809193060E944E13A6
:1025A0001092720610927106109270060F910895A3
:1025B00061E00C94C512E4E6F6E01382128288EE24
:1025C00093E0A0E0B0E084839583A683B7838EED8B
:1025D00094E09183808308951092230781E0809393
:1025E00021071092200761E082E10E94F90A61E070
:1025F00083E10E94F90AE9EBF0E080818E7F80831D
:1026000080818D7F808388E48093B80085E4809307
:10261000BC000895413208F03FC09091230791110A
:10262000FCCF91E090932307209321072FEF209375
:10263000B6061092FB06240F2093FA069093220709
:1026400090912207880F892B809322078091200781
:102650008130E9F410922007809122078093BB001B
:1026600085EC8093BC00809123078130E1F3809159
:10267000FB06841710F44091FB06ACEFB6E0962FF2
:10268000FB018E2F891B841720F0842F089585EE7F
:10269000E8CF8D918193F5CF40E0F7CF0F93413292
:1026A00008F047C0909123079111FCCF92E09093DE
:1026B0002307009321079FEF9093B6061092FB0625
:1026C0004093FA06362FACEFB6E0FB019E2F931B2A
:1026D000941750F11092220790912207880F892BAE
:1026E0008093220780912007813009F510922007FE
:1026F000809122078093BB0085EC8093BC0022234D
:1027000021F0809123078230D1F38091B6068F3F6C
:1027100091F08091B606803281F08091B6068033C8
:1027200071F084E00F91089591919D93CFCF85EE44
:10273000E4CF81E0F7CF80E0F5CF82E0F3CF83E014
:10274000F1CF613298F420912307243089F460930B
:10275000D806282FAAEDB6E0FC018E2F821B861723
:1027600010F080E0089581918D93F7CF81E0089576
:1027700082E0089585ED8093BC008091BC0084FDCB
:10278000FCCF10922307089585EC8093BC00109233
:10279000230708951F920F920FB60F9211242F93C3
:1027A0003F934F935F936F937F938F939F93AF93D9
:1027B000BF93EF93FF938091B900887F803609F42F
:1027C0004CC008F03FC0883209F4A8C018F5803129
:1027D00009F49CC0B8F4882309F4F9C0883009F4DE
:1027E00095C0FF91EF91BF91AF919F918F917F9194
:1027F0006F915F914F913F912F910F900FBE0F906E
:102800001F901895883109F489C0803251F7809360
:10281000B60615C0803409F49EC048F48033B9F37D
:102820008833F9F68093B6060E94C413DACF803558
:1028300009F485C0883509F496C0883491F60E9461
:10284000BA13CFCF883909F48CC038F5883729F00E
:1028500050F4883611F0803721F683E08093230707
:102860001092B70657C0883809F47BC0803919F038
:10287000803809F0B6CF8091B706803208F071C079
:10288000E091B70681E08E0F8093B7068091BB0080
:10289000F0E0E854F94F80833DC0803B39F0E0F42C
:1028A000803A09F479C0883A09F09BCF84E080939C
:1028B00023071092D9061092D806E0911E07F091D6
:1028C0001F0709958091D80681110FC081E0809380
:1028D000D8061092DA0609C0803C09F476C0883C1C
:1028E00009F473C0883B09F07CCFE091D90681E000
:1028F0008E0F8093D906F0E0E652F94F80818093E5
:10290000BB009091D9068091D80629C080912207FA
:102910008093BB0085EC8093BC0063CF9091FB0655
:102920008091FA06981758F5E091FB0681E08E0F2A
:102930008093FB06F0E0E450F94F8081E9CFE0910D
:10294000FB0681E08E0F8093FB068091BB00F0E0D8
:10295000E450F94F80839091FB068091FA06981716
:10296000C8F285E8D8CFE091FB0681E08E0F809316
:10297000FB068091BB00F0E0E450F94F808380912A
:10298000210781115CCF81E08093200784EA809346
:10299000BC001092230725CF8091B706803230F417
:1029A000E091B706F0E0E854F94F10820E94BA13A4
:1029B0006091B70670E0E0911C07F0911D0788EB6D
:1029C00096E009951092B7062FCF85ECE0CF1092D4
:1029D000B60635CF2F923F924F925F926F927F92C1
:1029E0008F929F92AF92BF92CF92DF92EF92FF921F
:1029F0000F931F93CF93DF9300D000D000D0CDB7BB
:102A0000DEB72C017E836D836A015901C801FC8207
:102A1000EB824801841A950A97FE03C09194819431
:102A2000910835012D813E81621A730A77FE03C039
:102A3000719461947108681479045CF43A2D2B2D1B
:102A40005C01832F922F3D812E81DE82CD82C32EA9
:102A5000D22EAD81BE81AA16BB065CF43C2D2D2D75
:102A60006C01832F922F3D812E81BE82AD82A32ED9
:102A7000B22E8501ED81FE810E1B1F0B1C012C184F
:102A80003D0837FE03C0319421943108780117FFC7
:102A900003C0FFEFEF1AFF0AF594E794C816D906B2
:102AA00054F12FEF3FEF3A832983AD81BE81AA16FF
:102AB000BB0654F1D201ED91FC910084F185E02D2B
:102AC0002B813C8168147904DCF44D815E81B60170
:102AD000C2010995E218F308F7FE06C0E981FA8100
:102AE000CE0EDF1EE00EF11E2D813E812F5F3F4F87
:102AF0003E832D83DACF81E090E09A838983D5CF1E
:102B0000A6016D817E81E4CF26960FB6F894DEBFD4
:102B10000FBECDBFDF91CF911F910F91FF90EF902E
:102B2000DF90CF90BF90AF909F908F907F906F90ED
:102B30005F904F903F902F900895DC01ED91FC91B4
:102B40000480F581E02D09940F931F93DC01ED9132
:102B5000FC91008CF18DE02D09951F910F91089546
:102B60000F931F93DC01ED91FC91028CF38DE02D0E
:102B700009951F910F910895EF92FF920F931F9364
:102B8000DC01ED91FC91048CF58DE02D09951F91F0
:102B90000F91FF90EF90089508958F929F92AF92BA
:102BA000BF92CF92DF92EF92FF920F931F93CF933A
:102BB000DF93EC015B014A0169017801E881F98149
:102BC0000680F781E02D0995C80CD91C86010150BB
:102BD0001109E881F9810088F189E02D9501A401AE
:102BE000B501CE010995E881F9810288F389E02DCC
:102BF000CE01DF91CF911F910F91FF90EF90DF9069
:102C0000CF90BF90AF909F908F9009948F929F929A
:102C1000AF92BF92CF92DF92EF92FF920F931F93EA
:102C2000CF93DF93EC015B014A016901E881F981EF
:102C30000680F781E02D099595012C0D3D1D215051
:102C40003109E881F9810088F189E02D780184015A
:102C5000A401B501CE010995E881F9810288F389C3
:102C6000E02DCE01DF91CF911F910F91FF90EF905A
:102C7000DF90CF90BF90AF909F908F9009944F922C
:102C80005F926F927F928F929F92AF92BF92CF92FC
:102C9000DF92EF92FF920F931F93CF93DF936C011C
:102CA0002B015A0139014801DC01ED91FC910680AC
:102CB000F781E02D0995E201640C751CD601ED91B8
:102CC000FC91C615D7055CF40484F585E02D8701D9
:102CD0009401A501BE01C60109952196EFCF028896
:102CE000F389E02DC601DF91CF911F910F91FF90E5
:102CF000EF90DF90CF90BF90AF909F908F907F909C
:102D00006F905F904F900994EF92FF920F931F93F3
:102D1000DC011A960D911C911B9718962D913C91F0
:102D20001997ED91FC91048CF58DE02D7B0140E02D
:102D300050E060E070E009951F910F91FF90EF90D7
:102D400008958F929F92AF92BF92CF92DF92EF92AF
:102D5000FF920F931F93CF93DF934C016B015A01A6
:102D6000E901DC01ED91FC916217730709F5041785
:102D7000150724F48B2D5801042F182F0A191B094D
:102D800098012F5F3F4F008CF18DE02D8701A50149
:102D9000B601C4010995DF91CF911F910F91FF906A
:102DA000EF90DF90CF90BF90AF909F908F9008955D
:102DB0004017510781F42617370724F48D2D690138
:102DC000C62FD82F9E012C193D092F5F3F4F028C33
:102DD000F38DE02DDBCF0680F781E02D0995D4013E
:102DE000ED91FC910088F189E02D9E01A501B601CD
:102DF000C4010995D401ED91FC910288F389E02D7D
:102E0000C401DF91CF911F910F91FF90EF90DF9060
:102E1000CF90BF90AF909F908F9009946F927F92C8
:102E20008F929F92AF92BF92CF92DF92EF92FF92DA
:102E30000F931F93CF93DF93EC016B015A0139017C
:102E40004801E881F9810680F781E02D0995E88144
:102E5000F9810684F785E02D87019301A501B6016C
:102E6000CE010995A501480D591D41505109E88130
:102E7000F9810684F785E02D9301B601CE0109950D
:102E8000E881F9810484F585E02D9401A501B6015E
:102E9000CE010995C60CD71CB60161507109E881B5
:102EA000F9810484F585E02D9401A501CE010995F1
:102EB000E881F9810288F389E02DCE01DF91CF917D
:102EC0001F910F91FF90EF90DF90CF90BF90AF9048
:102ED0009F908F907F906F9009940895FC0163708C
:102EE000658B8481958126813781613039F063302B
:102EF00029F091878087338722870895318720873B
:102F0000938782870895FC01138212828EEE94E0EB
:102F10009183808375836483578346837187608739
:102F200053874287158A158614861786168681E090
:102F3000848B2FEF3FEF338B228B318B208B868B53
:102F4000178A118E108E08952F923F924F925F92A2
:102F50006F927F928F929F92AF92BF92CF92DF92A9
:102F6000EF92FF920F931F93CF93DF93CDB7DEB70E
:102F70006A970FB6F894DEBF0FBECDBF9A8F898FC8
:102F80003B015C834B83D22E18870F834701C98294
:102F9000DC0158962D913C9159972115310509F086
:102FA000D3C018968D919C911997681779070CF0EA
:102FB00097C11A968D919C911B97481759070CF051
:102FC0008FC1AC2CB12CCB01B6E0CB9E800D911DF6
:102FD0001124181619060CF083C1C50123E0880FCF
:102FE000991F2A95E1F7840F951F181619060CF002
:102FF00077C1A98DBA8D57968C91811106C08D2D00
:1030000090E0803B91050CF0D394A98DBA8DED91A1
:10301000FC9111970680F781E02DCD010995B5E06F
:10302000DB9EC0011124630113011A82FC01E61921
:10303000F709FC87EB87FA81F53009F45FC0EB856F
:10304000FC85EC0DFD1DED53FF4FE4916B807C8002
:10305000230128E02D834E2F50E05A874987E0FF57
:103060005CC0A98DBA8DED91FC91B981B13009F0A8
:1030700047C00084F185E02D2F813885A201B6017B
:10308000898D9A8D0995E985FA85F595E795FD81F4
:10309000F150FD836A0C7B1C2FEF421A520AF1118A
:1030A000DACF2A0C3B1C3FEFC31AD30A4A814F5F89
:1030B0004A83463009F0BFCFA98DBA8DED91FC91BE
:1030C00011970288F389E02DCD016A960FB6F89426
:1030D000DEBF0FBECDBFDF91CF911F910F91FF904B
:1030E000EF90DF90CF90BF90AF909F908F907F90A8
:1030F0006F905F904F903F902F900994E0E0A6CFA3
:103100000284F385E02DEF80F88485019501A30109
:10311000B101898D9A8D0995B6CFEF81F885E815B3
:10312000F90509F4B0CFA98DBA8DED91FC91B98163
:10313000B13029F40084F185E02D94019FCF028401
:10314000F385E02D7401E1CFF90134969491329723
:1031500045915491D91AB7E0DB9E400D511D1124C1
:10316000F901259134913C872B87FA012590349001
:10317000FA013296C490319604913296D4903196E9
:1031800014913981432E512C42E0441651040CF421
:1031900086C08D2C0D2C000C9908612F012E000C7F
:1031A000770B7E836D83A98DBA8DED91FC9111977C
:1031B0000680F781E02DCD0109951A82B12CA12C52
:1031C000E02FF0E0FE87ED873981232F30E03A8B46
:1031D000298B4C2D50E05C8B4B8B6B817C81610F7C
:1031E000711D17FD7A957E8B6D8BC3018D0D911D21
:1031F000D7FC9A95988F8F8B8A2D90E0AD85BE85F0
:103200008A179B070CF058CF4D815E81480F591FDC
:10321000E989FA894E9F90014F9F300D5E9F300DD6
:1032200011244B815C81420F531F5A874987C12C5F
:10323000D12C6D897E89680F791F788B6F878A8181
:103240008C0DB6017727AB89BC896A177B070CF018
:1032500044C0877041F4C1010196EB85FC85E20D05
:10326000F31DB4901C01B7FE15C0A98DBA8DED9168
:10327000FC91B981B130C1F42F89388D620F731F71
:103280000084F185E02D2F8138854F855889898DFF
:103290009A8D0995BB0C3FEFC31AD30AD0CF1E827B
:1032A0001D82812C912C7FCF680D791D649DC001FA
:1032B000659D900D749D900D1124BC01660D771DC8
:1032C0000284F385E02DEF80F88482019201498524
:1032D0005A85898D9A8D0995DDCFA3948A838CCFE9
:1032E0006A960FB6F894DEBF0FBECDBFDF91CF91C7
:1032F0001F910F91FF90EF90DF90CF90BF90AF9014
:103300009F908F907F906F905F904F903F902F9005
:103310000895AF92BF92CF92EF92FF920F931F93B7
:10332000CF93DF93EC01262F888D998D009709F0BC
:1033300050C06A30C9F48C8948E0849F9001112400
:103340008E859F85820F931F9F878E871D861C8683
:1033500081E090E0DF91CF911F910F91FF90EF906E
:10336000CF90BF90AF9008956D3091F38E898823F0
:10337000C9F08C894C855D8596E0899F400D511D73
:103380001124688579854617570764F01D861C86C9
:10339000E8E08E9FC00111244E855F85840F951F44
:1033A0009F878E87EA88FB88088919894E855F8503
:1033B0006C857D85CC88CE010E94A4172C898C85D4
:1033C0009D85F6E02F9F800D911D11249D878C8790
:1033D000BFCF6A3079F41D861C86FC013696E491D5
:1033E0002C898E859F85E29F800D911D11249F87DA
:1033F0008E87AECF6D3009F4ABCFAC014C5F5F4F21
:10340000FA016491A22FB0E070E0A617B7070CF4A0
:103410009FCF3196E491F0E0EA17FB070CF498CFC8
:10342000FA014491FC013296A590B490322F341BDE
:10343000F7E03F9FA00CB11C1124F5013296449196
:103440003196E49150E041155105A1F1EE2391F13F
:10345000F5013596E4913E89332301F13C894E0F05
:10346000511DE7FD5A95349FB001359F700D112411
:103470004C855D85460F571F688579854617570728
:103480006CF01D861C86FC013696E4918E859F8526
:103490003E9F800D911D11249F878E87EA88FB88AF
:1034A000088919894E855F856C857D85CC88CE011C
:1034B0000E94A417F5013496E4912C898C859D8592
:1034C000E29F800D911D112481CFFC0175876487D7
:1034D000578746870895611101C061E0FC01648B44
:1034E0000895FC01738B628B718B608B0895FC01D6
:1034F00085890895FC01808591850895FC01828568
:10350000938508950F931F93CF93DF93EC018D89DB
:10351000823009F461C0833009F4B6C0813009F00B
:103520006AC0AC81BD81CD01841B950BAC014150BB
:10353000510957FD4CC08C819D81481759070CF0EB
:1035400046C077FF04C0260F371F60E070E08E8111
:103550009F81FB01E20FF31F8E179F071CF49C0154
:10356000261B370B1216130694F5922FA62FA6953D
:10357000A695A69580E8A89FD0011124A40FB51F99
:10358000A95EBE4F677009F491C048E0461B642FE6
:1035900070E0FB01E15FFE4F80813327261737077C
:1035A0000CF0FEC0EB01C21BD30BEFEFF0E002C04A
:1035B000F595E795CA95E2F78E230130110509F4D8
:1035C0006BC008F49BC00230110509F4F3C0DF9111
:1035D000CF911F910F910895EC81FD81E61BF70BB0
:1035E000AE81BF81CD01841B950BAC0141505109C7
:1035F000BF01621B730B57FDEACF8E819F81481775
:1036000059072CF777FF04C0260F371F60E070E0E2
:103610008C819D81FB01E20FF31F8E179F071CF425
:103620009C01261B370B121613068CF6FA0157FD68
:10363000379693E0F595E7959A95E1F7F695FE2F85
:10364000EE27F795E795E60FF71FE95EFE4F477007
:10365000552781E090E001C0880F4A95EAF7482F8E
:103660000130110509F487C008F48FC0023011053C
:1036700009F0ADCF2E0F3F1FE217F30709F4A7CFD4
:10368000808184278193F8CFEE81FF81E61BF70BC1
:10369000BF01621B730B4DCF5C91852B8C9326175A
:1036A00037070CF494CF941BA058BF4F983008F400
:1036B00047C00230110531F5FD01892F2081209589
:1036C0002083E058FF4F88508830C0F728EF290F3B
:1036D00026952695269530E02F5F3F4F3695322F61
:1036E000222737952795A20FB31F977009F46FCF44
:1036F000E92FF0E0E95FFE4F808132C080955C9158
:103700008523CCCF81E00130110509F080E081955F
:10371000FD01292F8083E058FF4F28502830D0F733
:1037200028EF290F26952695269530E02F5F3F4FED
:103730003695322F222737952795A20FB31F977002
:10374000992309F444CFE92FF0E0E95FFE4F80812F
:103750000130110541F058F00230110509F037CF62
:103760009C91892702C09C91892B8C9330CF8095A6
:103770009C918923FACF2E0F3F1F2E173F0709F484
:1037800026CF8081842B8193F8CF80952E0F3F1F09
:10379000E217F30709F41BCF908198239193F8CF98
:1037A0000130110509F478CF08F4A8CF02301105D3
:1037B00009F079CF5C91852771CF0F931F93CF9339
:1037C000DF93EC018D89823009F451C0833009F414
:1037D000ADC0813009F05AC0EC81FD81E41BF50BCE
:1037E000AF01421B530B77FD3DC08E819F8168174F
:1037F0007907C4F557FF04C0240F351F40E050E09F
:103800008C819D81FA01E20FF31F8E179F071CF434
:103810009C01241B350B1216130624F5FB0177FDC2
:103820003796A3E0F595E795AA95E1F7F695FE2F73
:10383000EE27F795E795E40FF51FE95EFE4F6770F9
:10384000772781E090E001C0880F6A95EAF7482F5A
:103850000130110509F473C008F47BC00230110572
:1038600009F482C0DF91CF911F910F910895AC812F
:10387000BD81CD01861B970BBC0161507109EE81A2
:10388000FF81E41BF50BAF01421B530B77FDEACF21
:103890008C819D81681779072CF757FF04C0240F8E
:1038A000351F40E050E08E819F81FA01E20FF31F47
:1038B0008E179F071CF49C01241B350B1216130650
:1038C0008CF6922FA42FA695A695A69580E8A89F82
:1038D000D0011124A60FB71FA95EBE4F477009F48F
:1038E00057C058E0541B452F652F70E0FB01E15F86
:1038F000FE4F80813327261737070CF0AEC0EB014F
:10390000C21BD30BEFEFF0E002C0F595E795CA9527
:10391000E2F78E230130110589F108F461C002300D
:10392000110509F09FCF5C9185272AC0AE81BF8128
:10393000CD01861B970BBC016150710954CF2E0F2E
:103940003F1FE217F30709F48DCF8081842B819309
:10395000F8CF80952E0F3F1FE217F30709F482CFAF
:10396000908198239193F8CF2E0F3F1FE217F30712
:1039700009F478CF808184278193F8CF5C91852BDF
:103980008C93261737070CF46DCF941BA058BF4FAC
:10399000983008F447C00230110531F5FD01892F38
:1039A000208120952083E058FF4F88508830C0F751
:1039B00028EF290F26952695269530E02F5F3F4F5B
:1039C0003695322F222737952795A20FB31F977070
:1039D00009F448CFE92FF0E0E95FFE4F808132C063
:1039E00080955C918523CCCF81E00130110509F0F1
:1039F00080E08195FD01292F8083E058FF4F2850FA
:103A00002830D0F728EF290F26952695269530E007
:103A10002F5F3F4F3695322F222737952795A20FDC
:103A2000B31F9770992309F41DCFE92FF0E0E95FE8
:103A3000FE4F80810130110541F058F00230110530
:103A400009F010CF9C91892702C09C91892B8C93FF
:103A500009CF80959C918923FACF0130110509F493
:103A60008DCF08F4BDCF0230110509F08ECF5BCFAA
:103A7000CF92DF92EF92FF920F931F93CF93DF933A
:103A80007C018B01EA01690177FD2AC00E947A1A44
:103A9000081719072CF5D7FD23C0C7010E947E1A0D
:103AA000C817D907ECF4C7010E94771A823009F1D0
:103AB000833081F1813049F4F701848195818C1B39
:103AC0009D0BE8018C0101501109F1E0CF16D104E2
:103AD00051F108F445C032E0C316D10409F45DC0C9
:103AE000DF91CF911F910F91FF90EF90DF90CF90DA
:103AF0000895F701848195819C01201B310B890178
:103B00000150110986819781FC01EC1BFD0BEF012F
:103B10002197DBCFF70186819781801B910B8E0166
:103B2000EC012197D2CFFE01D7FD379643E0F59502
:103B3000E7954A95E1F7F695FE2FEE27F795E7957D
:103B4000E00FF11FE95EFE4FC770DD2721E030E096
:103B500001C0220FCA95EAF78081822B8083C0CFF3
:103B6000FE01D7FD379623E0F595E7952A95E1F715
:103B7000F695FE2FEE27F795E795E00FF11FE95E2A
:103B8000FE4FC770DD2781E090E001C0880FCA9525
:103B9000EAF7809590818923E1CFFE01D7FD379622
:103BA00083E0F595E7958A95E1F7F695FE2FEE27E8
:103BB000F795E795E00FF11FE95EFE4FC770DD272F
:103BC00021E030E001C0220FCA95EAF78081822708
:103BD000C5CF1F93CF93DF93EC01162F40E250E047
:103BE00060E870E00E94831786E195E099838883FE
:103BF0008FEF8C8F88A38E8F8D8F1F8FDF91CF914A
:103C00001F91089580E092E0E7E1F1E0DF019C017F
:103C10001D9221503040E1F70895FC0181A18823D5
:103C200039F06EBD00000DB407FEFDCF8EB50895CE
:103C300028E030E090E8A4A1B5A14C9183A580953F
:103C400084238C93A2A1B3A182A5462F492371F0AE
:103C50004C91842B8C93A4A1B5A18C9143A5842B6A
:103C60008C9396952150310931F708954C918095A8
:103C70008423F0CF1F93CF93DF93EC01162F8C8D0D
:103C80008F3F09F1EEA1FFA180819CA5892B808344
:103C9000E8A5F9A590818DA5809589238083EEA163
:103CA000FFA190818CA5809589238083CE010E94FD
:103CB0000D1EEEA1FFA180819CA5892B8083DF9141
:103CC000CF911F9108956A8D062E000C770B84E624
:103CD00096E00E94C31260E084E696E00E946B12B8
:103CE000612F84E696E00E946B1284E696E0DF91F5
:103CF000CF911F910C94D8120F931F93CF93DF9302
:103D0000EC01162F022F6B8F4A8F8C8D8F3F09F499
:103D10001DC161E08E8D0E94BD0A61E088A10E94F4
:103D2000BD0A88A1082E000C990BFC01E057FF4F3B
:103D3000E491F0E0EE0FFF1FE255FF4F2591349123
:103D40003FA32EA3FC01E458FF4FE491ECA78E8D16
:103D5000082E000C990BFC01E057FF4FE491F0E0B6
:103D6000EE0FFF1FE255FF4F2591349139A728A789
:103D7000FC01E458FF4FE491EDA789A1811134C003
:103D800061E08C8D0E94BD0A61E08D8D0E94BD0AAC
:103D90008D8D082E000C990BFC01E057FF4FE4912C
:103DA000F0E0EE0FFF1FE255FF4F259134913DA348
:103DB0002CA3FC01E458FF4FE491EBA78C8D082E57
:103DC000000C990BFC01E057FF4FE491F0E0EE0F7F
:103DD000FF1FE255FF4F259134913BA32AA3FC011D
:103DE000E458FF4FE491EAA789A18823D9F00E9403
:103DF000AE2680912607882389F09FB7F89480919A
:103E00002607813009F09FC08DB3809324072DB31E
:103E100080912507809582238DBB9FBF80E58CBD57
:103E200081E08DBD0023F1F08F8D87FD1BC061E027
:103E30000E94BD0A61E08F8D0E94F90A61E070E086
:103E400080E090E00E94270A60E08F8D0E94F90ACE
:103E50006AE070E080E090E00E94270A61E08F8DC8
:103E60000E94F90A6EEACE010E943A1E65EDCE016B
:103E70000E943A1E60E8CE010E943A1E68EACE0116
:103E80000E943A1E6FE1CE010E943A1E63EDCE0100
:103E90000E943A1E60E0CE010E943A1E60E4CE010C
:103EA0000E943A1E6DE8CE010E943A1E113009F0C0
:103EB00052C060E1CE010E943A1E60E2CE010E9433
:103EC0003A1E60E0CE010E943A1E61EACE010E94D5
:103ED0003A1E68ECCE010E943A1E6AEDCE010E94A5
:103EE0003A1E62E0CE010E943A1E61E8CE010E94B5
:103EF0003A1E6FE8CE010E943A1E69EDCE010E9483
:103F00003A1E113051F562E2CE010E943A1E6BED6D
:103F1000CE010E943A1E60E4CE010E943A1E64EA7D
:103F2000CE010E943A1E66EACE010E943A1E6EE25F
:103F3000CE010E943A1E6FEACE01DF91CF911F9110
:103F40000F910C943A1E9093240768CF84E696E074
:103F50000E949C1267CF64E1ADCF61EFD5CFCF92C5
:103F6000DF92EF92FF920F931F93CF93DF93EC01B9
:103F700061E20E943A1E60E0CE010E943A1E6FE7A5
:103F8000CE010E943A1E62E2CE010E943A1E60E01B
:103F9000CE010E943A1E63E0CE010E943A1E8C8D33
:103FA0008F3F89F1EEA1FFA180819CA5892B8083A1
:103FB000E8A5F9A580819DA5892B8083EEA1FFA1AD
:103FC00090818CA580958923808307E111E087E1AA
:103FD000E82E83E0F82EF80161918F01CE010E9456
:103FE0000D1EE016F106B9F7EEA1FFA180819CA598
:103FF000892B8083DF91CF911F910F91FF90EF90DC
:10400000DF90CF900895E090B8008CE08093B800E6
:1040100000E010E06A8D062E000C770B84E696E037
:104020000E94C31260E484E696E00E946B12C8010D
:10403000895E9E4F6C01F12C86010751114090E181
:10404000F91649F0F60161916F0184E696E00E944D
:104050006B12F394F1CF84E696E00E94D81201151A
:10406000F2E01F07B8F2E092B800C4CF803D27E02D
:10407000920710F0805D974050E021E070E0E22F61
:10408000F0E0E617F7073CF4EE53FA4FE4914E0FD9
:10409000511D2F5FF4CF633071053CF09C012370FC
:1040A0003327232B11F44F5F5F4F9C012D5F3F4F50
:1040B0003695279536952795EDE6F1E08E9FB00170
:1040C0008F9F700D9E9F700D1124CB010197820F61
:1040D000931F840F951F0895DC01ED91FC910190D1
:1040E000F081E02D0994CF92EF920F93FC01603D97
:1040F00087E0780710F0605D77406083418322831A
:104100000383E482C5820F91EF90CF900895FC0164
:1041100080814281618190E00E943620069667E0AE
:1041200070E00E94122D089581E008951F93CF93AF
:10413000DF93EB0168E670E084E696E00E94C3122C
:1041400060E070E084E696E00E946C202D811AE029
:10415000822F612F0E94062D682F660F680F660F51
:10416000620F84E696E00E946B122C81822F612FF1
:104170000E94062D682F660F680F660F620F84E697
:1041800096E00E946B122B81822F612F0E94062DD8
:10419000682F660F680F660F620F84E696E00E9434
:1041A0006B1260E084E696E00E946B122A81822FF7
:1041B000612F0E94062D682F660F680F660F620F31
:1041C00084E696E00E946B122981822F612F0E9463
:1041D000062D682F660F680F660F620F84E696E063
:1041E0000E946B122881822F612F0E94062D682F5A
:1041F000660F680F660F620F84E696E00E946B12EE
:1042000060E070E084E696E00E946C2084E696E030
:10421000DF91CF911F910C94D812DF92EF92FF9211
:104220000F931F93CF93DF9300D000D000D0CDB772
:10423000DEB768E670E084E696E00E94C31260E0B4
:1042400070E084E696E00E946C2084E696E00E948E
:10425000D81247E050E068E670E084E696E00E94FD
:10426000B61284E696E00E9415128F77282F30E070
:1042700094E0359527959A95E1F7922F990F990F2C
:10428000122F191B110F180F84E696E00E941512C9
:104290009C0144E0359527954A95E1F72F70332727
:1042A000922F990F990F022F091B000F080F84E618
:1042B00096E00E9415129C0154E0359527955A9579
:1042C000E1F72F703327922F990F990FF22EF91AD9
:1042D000FF0CF80E84E696E00E94151284E696E044
:1042E0000E9415129C0164E0359527956A95E1F7C7
:1042F0002F703327922F990F990FE22EE91AEE0CA7
:10430000E80E84E696E00E9415129C0174E0359553
:1043100027957A95E1F72F703327922F990F990FF0
:10432000D22ED91ADD0CD80E84E696E00E94151222
:10433000AC01E4E055954795EA95E1F74F705527B4
:10434000942F990F990F242F291B220F280F3D2DF1
:10435000A701B80180E090E026960FB6F894DEBF82
:104360000FBECDBFDF91CF911F910F91FF90EF90C6
:10437000DF9008950895FC018AEB91E2928B818B86
:10438000768365831482108289E0818381E0828351
:1043900083830895CF93DF93EB0167E0CE010E9402
:1043A000232691E02F81281390E0892FDF91CF9170
:1043B0000895CF92DF92EF92FF920F931F93CF93C6
:1043C000DF938C017B01D42FFC01858196810E94B3
:1043D0006625C0E0CD2ED12C8C2F90E0C816D906D2
:1043E00054F480E0DF91CF911F910F91FF90EF90F7
:1043F000DF90CF90089541E0B701F8018581968163
:104400000E949525882369F3CD1306C0B701C80122
:104410000E94CA218111E6CFCF5FDECFEF92FF92DB
:104420000F931F93CF93DF93EC018B017A018D8162
:104430009E810E9454248823F9F0B8018D819E81C9
:104440000E94452540E06EEB8D819E810E94F524FF
:104450008701F12C8D819E810E942925F80181938D
:104460008F01F394F9E0FF12F5CF8D819E810E94B8
:10447000542491E0813009F090E0892FDF91CF91B1
:104480001F910F91FF90EF900895CF93DF93EA0172
:104490000E940E22982F882341F068E0CE010E94EE
:1044A000232691E02885281390E0892FDF91CF9172
:1044B00008950F931F93CF93DF93EC018B018D81B0
:1044C0009E810E945424B8018D819E810E944525C1
:1044D00040E064EB8D819E810E94F5248D819E8158
:1044E0000E94CA24182F8D819E810E94542481E04D
:1044F000111180E0DF91CF911F910F910895CF931B
:10450000DF93CDB7DEB729970FB6F894DEBF0FBEA5
:10451000CDBFFB012081203199F0AE014F5F5F4F8D
:104520000E944522882331F08D818F33A9F020F439
:104530008F31A1F080E007C08F3521F08F37D1F7A0
:104540008CE001C08BE029960FB6F894DEBF0FBE59
:10455000CDBFDF91CF9108958AE0F5CF89E0F3CF09
:10456000EF92FF920F931F93CF93DF93CDB7DEB7F8
:1045700061970FB6F894DEBF0FBECDBF8C01FC0172
:10458000858196810E946625F801148241E0BE0172
:10459000665F7F4FF801858196810E94952588236B
:1045A000E9F1BE01665F7F4FC8010E94CA218823DE
:1045B00069F3F8018081811108C0BE01665F7F4FF9
:1045C000C8010E945922811125C0AE014F5F5F4F83
:1045D000BE01665F7F4FC8010E940E22F801E18094
:1045E000F12CBE01665F7F4FC8010E947F2290E0E0
:1045F0008E159F0544F4F8018181F801818384813F
:104600008F5F8483C3CFBE01665F7F4FC8010E9466
:104610007F22F3CF81E0F8018083D7CF61960FB678
:10462000F894DEBF0FBECDBFDF91CF911F910F91E8
:10463000FF90EF900895CF93DF93CDB7DEB7299722
:104640000FB6F894DEBF0FBECDBFAE014F5F5F4F18
:104650000E940E2281E09981911101C080E029968B
:104660000FB6F894DEBF0FBECDBFDF91CF91089596
:104670008F929F92AF92BF92CF92DF92EF92FF9272
:104680000F931F93CF93DF93EC018A01695063303E
:10469000B8F5E62FF0E0EE0FFF1FE65CFA4FC080A2
:1046A000D1800115110589F18B81882371F18881F1
:1046B00081112BC00E94F6094B015C010D2C000CEE
:1046C000EE08FF08B801CE010E941B2381110BC028
:1046D0000E94F6096C197D098E099F0968157905F4
:1046E0008A059B0578F3DF91CF911F910F91FF9081
:1046F000EF90DF90CF90BF90AF909F908F900895F4
:104700008EEEC82E82E0D82ECCCFB601DD0C880B01
:10471000990BDF91CF911F910F91FF90EF90DF9058
:10472000CF90BF90AF909F908F900C94270ACF931B
:10473000DF93EC018D819E810E9454248D819E81A6
:104740000E946225488164E48D819E810E94F52447
:104750008A81882341F040E050E06981CE01DF91F9
:10476000CF910C943823DF91CF910895FA012181E4
:1047700030E0322F2227330F330F330F808148E090
:10478000849FC0011124282B392BDB018C918031AF
:10479000C1F4678170E08681AB01481B5109CA01F1
:1047A0009695982F8827979587950E94262D60517A
:1047B000710953E0220F331F5A95E1F72078260F35
:1047C000371FC9010895EF92FF920F931F93CF9364
:1047D000DF93CDB7DEB729970FB6F894DEBF0FBED3
:1047E000CDBF8C017B01AE014F5F5F4F0E94452220
:1047F0008823A1F0AE014F5F5F4FB701C8010E944F
:10480000B62329960FB6F894DEBF0FBECDBFDF9159
:10481000CF911F910F91FF90EF90089580E894EE53
:10482000F0CF0E94E323813824EE92076CF0BC01A4
:10483000990F880B990B0E944F2920E030E040E04F
:104840005CE30E94042A089560E070E08EEF92EC31
:1048500008950F931F93CF93DF93CDB7DEB72897BB
:104860000FB6F894DEBF0FBECDBF8C01462FBE0140
:104870006F5F7F4F0E94D921882389F0BE016F5F4F
:104880007F4FC8010E94112428960FB6F894DEBF0E
:104890000FBECDBFDF91CF911F910F91089560E0C2
:1048A00070E08EEF92ECF0CFFF920F931F93CF93B7
:1048B000DF93FC011081C181D281F8948981012F9D
:1048C00000958023898378948DE7F82EFA94FF2051
:1048D00061F182E090E00E944F0A88818123B1F368
:1048E000F8948A8180238A838981812B89837894B3
:1048F00080EE91E00E944F0AF89489818023898399
:1049000086E490E00E944F0A88811823C1E009F0F4
:10491000C0E078948AE991E00E944F0A8C2FDF91E1
:10492000CF911F910F91FF900895C0E0F7CF1F9393
:10493000CF93DF93FC011081C181D281812F8095BB
:1049400060FF16C0F8949A8189238A838981812B1C
:1049500089838AE090E00E944F0A8A81182B1A838B
:10496000789487E390E0DF91CF911F910C944F0AE8
:10497000F8949A8189238A838981812B898381E4B0
:1049800090E00E944F0A8A81182B1A83789485E060
:1049900090E0E9CF0F931F93CF93DF93FC01108139
:1049A000C181D281F8948981812B89838A81012FE9
:1049B000009580238A8383E090E00E944F0A8981DA
:1049C000802389838AE090E00E944F0AC88178940E
:1049D00085E390E00E944F0A1C2381E009F480E007
:1049E000DF91CF911F910F910895DF92EF92FF9287
:1049F0000F931F93CF93DF93EC01D62EE42E08E0A4
:104A000010E0FF24F39461E08D2D8F2109F460E024
:104A1000CE010E949724FF0C01501109A1F7E1106B
:104A200010C0F894E981FA81918188818095892369
:104A30008183E981FA8192818881809589238283AB
:104A40007894DF91CF911F910F91FF90EF90DF90BD
:104A50000895EF92FF920F931F93CF93DF937C0102
:104A600008E010E0C0E0D1E0C7010E94CA24811133
:104A7000CD2BDD0F01501109B9F78C2FDF91CF91AC
:104A80001F910F91FF90EF900895EF92FF920F9377
:104A90001F93CF93DF937C018B0140E065E50E947B
:104AA000F524E80110E0699140E0C7010E94F52477
:104AB0001F5F1830C1F7DF91CF911F910F91FF90C9
:104AC000EF90089540E06CEC0C94F524FC01138603
:104AD00015861486DC011B9633961E92AE17BF070F
:104AE000E1F708951F93CF93DF93EC01162F60E059
:104AF000812F0E94BD0A612F70E0FB01E458FF4F37
:104B0000E491E883FB01E057FF4FE491F0E0EE0F02
:104B1000FF1FEC55FF4F859194919A838983CE01B5
:104B2000DF91CF911F910C946625BF92CF92DF92B7
:104B3000EF92FF920F931F93CF93DF93EC01B62E6A
:104B4000C72E142FED84E11004C00E94542481115B
:104B50000EC01B861D861C8680E0DF91CF911F91C1
:104B60000F91FF90EF90DF90CF90BF90089540E0BD
:104B7000112369F160EFCE010E94F524D12C01E0F0
:104B800011E0CE010E94CA24F82ECE010E94CA2450
:104B900091E0F9121EC0813009F03EC0812F90E0F3
:104BA00081349105B4F2EB86E11002C081E08D877B
:104BB0008B81882371F22396EB2DFC2DCF01089673
:104BC00029912193E817F907D9F781E0C6CF6CEE58
:104BD000D2CFED2DF0E0F81215C0212F30E08B85FB
:104BE000482F50E024173507ACF4DE01AE0FBF1F8D
:104BF00013968C91802381F4F12C293031050CF42B
:104C00001C87E12EEC0FFD1F8381902F9095892347
:104C100083830AC01813F0CFFE01ED0DF11D8381CF
:104C2000802B8383FF24F3946F2DCE010E94972461
:104C30001F5F000F11F4D39401E08D2D90E00897D1
:104C40000CF49FCFABCFDC01E0E0615038F08D91E8
:104C5000E827F0E0E153FA4FE491F7CF8E2F089563
:104C6000FC0110821182128213828AE090E0958307
:104C70008483168217820895CF93DF93EC01862FE9
:104C80006F831E820E94270B892B11F083E08E8395
:104C90000E94F609688379838A839B83DF91CF9191
:104CA0000895FC01758364830895CF92DF92EF929B
:104CB000FF921F93CF93DF93EC018F810E94270B0C
:104CC00011E0892B09F410E08E81982F977F9E8345
:104CD000869581701817B1F00E94F6096883798370
:104CE0008A839B838E8192E089278E838E8183FBCA
:104CF000882780F9DF91CF911F91FF90EF90DF908F
:104D0000CF9008950E94F609C880D980EA80FB8080
:104D1000AB01BC014C195D096E097F098C819D8135
:104D2000A0E0B0E0481759076A077B07F8F28E81C8
:104D300081701817D9F20E94F609688379838A83F3
:104D40009B838E8191E089278860CFCFFC0196817B
:104D5000997081E0993009F080E00895CF93CFB742
:104D6000F89480912707811127C0EAE9F0E0849147
:104D7000E6E8F0E09491E82FF0E0EE0FFF1FE85432
:104D8000FF4FA591B491EC91E92321F461E08AE011
:104D90000E94F90A61E08AE00E94BD0A8CB5806138
:104DA0008CBD8CB580648CBD61E08DE00E94BD0A35
:104DB00061E08BE00E94BD0A809127078F5F80939E
:104DC0002707CFBFCF9108950F931F93CF93DF9302
:104DD0008230910510F482E090E0E0912A07F09192
:104DE0002B0720E030E0A0E0B0E0309799F42115E7
:104DF000310509F447C0281B390B24303105C0F5B3
:104E00008A819B816115710571F1FB019383828316
:104E1000FE0111C040815181028113814817590759
:104E2000F8F04817590799F4109761F012960C930F
:104E3000129713961C933296CF01DF91CF911F9159
:104E40000F91089500932A0710932B07F4CF211593
:104E5000310519F04217530718F49A01BD01EF010B
:104E6000DF01F801C2CF90932B0780932A07D0CFA0
:104E7000FE01E20FF31F8193919322503109398390
:104E80002883DACF2091280730912907232B41F47A
:104E900020910201309103013093290720932807C4
:104EA00020910001309101012115310541F42DB708
:104EB0003EB74091040150910501241B350BE09150
:104EC0002807F0912907E217F307A0F42E1B3F0BE8
:104ED0002817390778F0AC014E5F5F4F241735076C
:104EE00048F04E0F5F1F5093290740932807819386
:104EF0009193A2CFE0E0F0E09FCFCF93DF930097B4
:104F0000D1F0FC01329713821282A0912A07B0914E
:104F10002B07109799F420813181820F931F2091E4
:104F20002807309129072817390709F066C0F09340
:104F30002907E0932807DF91CF910895ED0120E044
:104F400030E0CE17DF0708F03FC04A815B819E0149
:104F500041155105B9F5E901FB83EA83499159915E
:104F6000C40FD51FEC17FD0761F480819181029673
:104F7000840F951FE90199838883828193819B83A4
:104F80008A83E0E0F0E012968D919C911397009750
:104F9000C9F52D913C911197CD010296820F931F77
:104FA00020912807309129072817390721F63097D3
:104FB00061F510922B0710922A07B0932907A0934E
:104FC0002807B9CFEA01BDCFD383C2834081518185
:104FD000840F951FC817D90761F44E5F5F4F888112
:104FE0009981480F591F518340838A819B81938304
:104FF00082832115310509F0AECFF0932B07E093A2
:105000002A0799CFFD01DC01BECF13821282D5CFD2
:1050100081E090E0F8940C94E82DF8940C94E82D3D
:10502000AEE0B0E0E6E1F8E20C94A92D0D891E890E
:1050300086E08C831A8309838FEF9FE79E838D839D
:10504000AE01475E5F4F6F89788DCE0101960E9459
:10505000762A2F813885020F131FF80110822E96B1
:10506000E4E00C94C52D5058BB27AA270E944B287A
:105070000C94C5290E94B72938F00E94BE2920F05F
:1050800039F49F3F19F426F40C94B4290EF4E095FA
:10509000E7FB0C94AE29E92F0E94D62958F3BA17E2
:1050A000620773078407950720F079F4A6F50C943E
:1050B000F8290EF4E0950B2EBA2FA02D0B01B901A3
:1050C00090010C01CA01A0011124FF27591B99F07E
:1050D000593F50F4503E68F11A16F040A22F232F8A
:1050E000342F4427585FF3CF469537952795A795DA
:1050F000F0405395C9F77EF41F16BA0B620B730B81
:10510000840BBAF09150A1F0FF0FBB1F661F771FF1
:10511000881FC2F70EC0BA0F621F731F841F48F4A6
:10512000879577956795B795F7959E3F08F0B0CF2F
:105130009395880F08F09927EE0F97958795089516
:105140000E948A2908F481E008950E94B9280C94ED
:10515000C5290E94BE2958F00E94B72940F029F4C1
:105160005F3F29F00C94AE2951110C94F9290C944D
:10517000B4290E94D62968F39923B1F3552391F3FA
:10518000951B550BBB27AA2762177307840738F0B6
:105190009F5F5F4F220F331F441FAA1FA9F335D013
:1051A0000E2E3AF0E0E832D091505040E695001CC7
:1051B000CAF72BD0FE2F29D0660F771F881FBB1F81
:1051C000261737074807AB07B0E809F0BB0B802D5F
:1051D000BF01FF2793585F4F3AF09E3F510578F08B
:1051E0000C94AE290C94F9295F3FE4F3983ED4F374
:1051F000869577956795B795F7959F5FC9F7880F5F
:10520000911D9695879597F90895E1E0660F771FB0
:10521000881FBB1F621773078407BA0720F0621B41
:10522000730B840BBA0BEE1F88F7E09508950E946C
:105230001E296894B1110C94F92908950E94DE2961
:1052400088F09F5798F0B92F9927B751B0F0E1F047
:10525000660F771F881F991F1AF0BA95C9F714C0F7
:10526000B13091F00E94F829B1E008950C94F8292A
:10527000672F782F8827B85F39F0B93FCCF3869530
:1052800077956795B395D9F73EF49095809570958D
:1052900061957F4F8F4F9F4F0895E89409C097FB0A
:1052A0003EF490958095709561957F4F8F4F9F4FFD
:1052B0009923A9F0F92F96E9BB279395F695879541
:1052C00077956795B795F111F8CFFAF4BB0F11F404
:1052D00060FF1BC06F5F7F4F8F4F9F4F16C08823AB
:1052E00011F096E911C0772321F09EE8872F762FE1
:1052F00005C0662371F096E8862F70E060E02AF022
:105300009A95660F771F881FDAF7880F969587950D
:1053100097F90895990F0008550FAA0BE0E8FEEFE2
:1053200016161706E807F907C0F012161306E40769
:10533000F50798F0621B730B840B950B39F40A2662
:1053400061F0232B242B252B21F408950A2609F440
:10535000A140A6958FEF811D811D089597F99F6744
:1053600080E870E060E008959FEF80EC08950024ED
:105370000A941616170618060906089500240A94BA
:1053800012161306140605060895092E0394000C40
:1053900011F4882352F0BB0F40F4BF2B11F460FFCF
:1053A00004C06F5F7F4F8F4F9F4F089557FD9058F8
:1053B000440F551F59F05F3F71F04795880F97FBD9
:1053C000991F61F09F3F79F0879508951216130693
:1053D0001406551FF2CF4695F1DF08C016161706C2
:1053E0001806991FF1CF86957105610508940895F7
:1053F000E894BB2766277727CB0197F908950E9489
:105400008A2908F48FEF08950E94172A0C94C52961
:105410000E94B72938F00E94BE2920F0952311F090
:105420000C94AE290C94B42911240C94F9290E94EF
:10543000D62970F3959FC1F3950F50E0551F629FD9
:10544000F001729FBB27F00DB11D639FAA27F00DDD
:10545000B11DAA1F649F6627B00DA11D661F829F04
:105460002227B00DA11D621F739FB00DA11D621FE9
:10547000839FA00D611D221F749F3327A00D611D06
:10548000231F849F600D211D822F762F6A2F1124E8
:105490009F5750409AF0F1F088234AF0EE0FFF1F1B
:1054A000BB1F661F771F881F91505040A9F79E3F72
:1054B000510580F00C94AE290C94F9295F3FE4F378
:1054C000983ED4F3869577956795B795F795E795C8
:1054D0009F5FC1F7FE2B880F911D9695879597F9D1
:1054E00008950E948A29880B990B0895ABE0B0E0DB
:1054F000ECE7FAE20C949B2D7C013B018A01FC0154
:1055000017821682838181FFDAC1CE0101965C0188
:10551000F7019381F30193FD859193FF81913F0101
:10552000882309F42FC1853239F493FD859193FFC7
:1055300081913F01853229F4B70190E00E94782CD7
:10554000E7CF912C212C312CFFE1F31538F08B3271
:10555000D9F090F48032D9F0833249F137FC41C060
:1055600020ED280F2A3070F536FE24C08AE0989E80
:10557000200D1124922E0EC08D32A9F0803371F7C8
:10558000232D2160322E06C0832D8260382EE32D1C
:10559000E4603E2EF30193FD859193FF81913F01DD
:1055A0008111D2CF1EC0F32DF8603F2EF3CF232DF3
:1055B0002061E8CFEAE02E9E200D1124222EF32D4B
:1055C000F062F3CF8E3229F436FCDCC0232D206448
:1055D000D9CF8C3621F4832D8068382EDBCF8836E6
:1055E000C9F2982F9F7D95549330D8F08336C9F136
:1055F0008337E9F1833509F068C0280122E0420EC3
:10560000511CF801C080D18036FE45C0692D70E084
:10561000C6010E94622C4C01F32DF0683F2E8201DE
:105620000BC00C5F1F4F9FE3998388248394912CB8
:105630006501F32DFF773F2E33FC05C0822D90E0EE
:105640008816990658F1522C8114910471F5552051
:1056500009F45ECFB70180E290E00E94782C5A9462
:10566000F6CFF801808189830E5F1F4FDECF2801BE
:10567000F2E04F0E511CF801C080D18036FE08C008
:10568000692D70E0C6010E946D2C4C018201D1CFC2
:105690006FEF7FEFF7CF6FEF7FEFBACFB70180E209
:1056A00090E00E94782C2A94C9CFF60137FC8591AE
:1056B00037FE81916F01B70190E00E94782C511064
:1056C0005A9421E0821A9108BFCF843611F08936AE
:1056D000C1F5F80137FE2CC0608171818281938110
:1056E0000C5F1F4FF32DFF763F2E97FF09C090955B
:1056F0008095709561957F4F8F4F9F4FF0683F2E3B
:105700002AE030E0A5010E94A82CC82ECA1836FE57
:1057100062C0232D2E7F422EC91408F09BC034FE98
:1057200005C032FC03C0832D8E7E482E892C55C0C7
:1057300060817181072E000C880B990B0E5F1F4F43
:10574000D1CF8537B9F4232D2F7ED22E2AE030E039
:10575000F801D7FE39C060817181828193810C5F2D
:105760001F4FA5010E94A82CC82ECA18FD2DFF7737
:105770003F2ECDCF932D997FD92E8F3611F148F43E
:105780008835B9F0F701868197812B96E2E10C9478
:10579000B72D803751F08837A9F7D4FE03C0FD2D0F
:1057A000F460DF2E20E130E0D3CFE92FE061DE2E80
:1057B000F4CF34FE03C0292F2660D22E20E132E040
:1057C000C7CF28E030E0C4CF6081718180E090E0F5
:1057D0000E5F1F4FC6CF8C2C432C44FE44C0FE01ED
:1057E000EC0DF11D80818033B9F5942D997E492E01
:1057F000E42DE8705E2E43FC44C040FE3EC082149F
:1058000008F044C02C0C922C981844FE44C0B701F8
:1058100080E390E00E94782C42FE07C041FC38C033
:1058200088E790E0B7010E94782CC91408F440C0C2
:10583000CA94D12CFFEFCF1ADF0ACA0CDB1CF60189
:1058400082916F01B70190E00E94782CAC14BD04E6
:10585000B1F7FDCE8C2CC1CF42FC02C08394C8CFDF
:1058600083948394C5CF842D867811F2F7CFB70146
:1058700080E290E00E94782C83948214C0F3512C33
:10588000C4CF8214E0F7522C5818BFCF9C2CBDCF48
:1058900088E590E0C7CF842D867839F241FE06C0B6
:1058A0008BE247FC8DE2B70190E0BDCF80E2F9CFFB
:1058B000B70180E390E00E94782C9A94B6CF8FEFE6
:1058C0009FEF63CFFC010590615070400110D8F745
:1058D000809590958E0F9F1F0895FC016150704038
:1058E00001900110D8F7809590958E0F9F1F089515
:1058F0000F931F93CF93DF93182F092FEB018B8109
:1059000081FD09C01FEF0FEF812F902FDF91CF9105
:105910001F910F91089582FF14C02E813F818C81C9
:105920009D81281739073CF4E881F981CF01019660
:105930009983888310838E819F8101969F838E83B4
:10594000E3CFE885F985812F0995892BA1F3DACF7B
:10595000FA01AA27283051F1203181F1E8946F93A0
:105960006E7F6E5F7F4F8F4F9F4FAF4FB1E03ED046
:10597000B4E03CD0670F781F891F9A1FA11D680FE4
:10598000791F8A1F911DA11D6A0F711D811D911D17
:10599000A11D20D009F468943F912AE0269F11248C
:1059A0003019305D3193DEF6CF010895462F4770F0
:1059B000405D4193B3E00FD0C9F7F6CF462F4F704B
:1059C000405D4A3318F0495D31FD4052419302D0A9
:1059D000A9F7EACFB4E0A69597958795779567954F
:1059E000BA95C9F700976105710508959B01AC014F
:1059F0000A2E06945795479537952795BA95C9F776
:105A0000620F731F841F951FA01D0895991B79E0D5
:105A100004C0991F961708F0961B881F7A95C9F73E
:105A200080950895AA1BBB1B51E107C0AA1FBB1F8D
:105A3000A617B70710F0A61BB70B881F991F5A951A
:105A4000A9F780959095BC01CD01089597FB072E8D
:105A500016F4009407D077FD09D00E94122D07FCA0
:105A600005D03EF4909581959F4F0895709561956E
:105A70007F4F0895A1E21A2EAA1BBB1BFD010DC08A
:105A8000AA1FBB1FEE1FFF1FA217B307E407F507EE
:105A900020F0A21BB30BE40BF50B661F771F881FCA
:105AA000991F1A9469F760957095809590959B0160
:105AB000AC01BD01CF010895052E97FB1EF40094A3
:105AC0000E94732D57FD07D00E943A2D07FC03D08A
:105AD0004EF40C94732D50954095309521953F4F81
